{
  "contractName": "PLCRVoting",
  "abi": [
    {
      "constant": true,
      "inputs": [],
      "name": "INITIAL_POLL_NONCE",
      "outputs": [
        {
          "name": "",
          "type": "uint256"
        }
      ],
      "payable": false,
      "stateMutability": "view",
      "type": "function"
    },
    {
      "constant": true,
      "inputs": [
        {
          "name": "",
          "type": "address"
        }
      ],
      "name": "voteTokenBalance",
      "outputs": [
        {
          "name": "",
          "type": "uint256"
        }
      ],
      "payable": false,
      "stateMutability": "view",
      "type": "function"
    },
    {
      "constant": true,
      "inputs": [
        {
          "name": "",
          "type": "uint256"
        }
      ],
      "name": "pollMap",
      "outputs": [
        {
          "name": "commitEndDate",
          "type": "uint256"
        },
        {
          "name": "revealEndDate",
          "type": "uint256"
        },
        {
          "name": "voteQuorum",
          "type": "uint256"
        },
        {
          "name": "votesFor",
          "type": "uint256"
        },
        {
          "name": "votesAgainst",
          "type": "uint256"
        }
      ],
      "payable": false,
      "stateMutability": "view",
      "type": "function"
    },
    {
      "constant": true,
      "inputs": [],
      "name": "registry",
      "outputs": [
        {
          "name": "",
          "type": "address"
        }
      ],
      "payable": false,
      "stateMutability": "view",
      "type": "function"
    },
    {
      "constant": true,
      "inputs": [],
      "name": "pollNonce",
      "outputs": [
        {
          "name": "",
          "type": "uint256"
        }
      ],
      "payable": false,
      "stateMutability": "view",
      "type": "function"
    },
    {
      "constant": true,
      "inputs": [],
      "name": "token",
      "outputs": [
        {
          "name": "",
          "type": "address"
        }
      ],
      "payable": false,
      "stateMutability": "view",
      "type": "function"
    },
    {
      "anonymous": false,
      "inputs": [
        {
          "indexed": true,
          "name": "pollID",
          "type": "uint256"
        },
        {
          "indexed": false,
          "name": "numTokens",
          "type": "uint256"
        },
        {
          "indexed": true,
          "name": "voter",
          "type": "address"
        }
      ],
      "name": "_VoteCommitted",
      "type": "event"
    },
    {
      "anonymous": false,
      "inputs": [
        {
          "indexed": true,
          "name": "pollID",
          "type": "uint256"
        },
        {
          "indexed": false,
          "name": "numTokens",
          "type": "uint256"
        },
        {
          "indexed": false,
          "name": "votesFor",
          "type": "uint256"
        },
        {
          "indexed": false,
          "name": "votesAgainst",
          "type": "uint256"
        },
        {
          "indexed": true,
          "name": "choice",
          "type": "uint256"
        },
        {
          "indexed": true,
          "name": "voter",
          "type": "address"
        },
        {
          "indexed": false,
          "name": "salt",
          "type": "uint256"
        }
      ],
      "name": "_VoteRevealed",
      "type": "event"
    },
    {
      "anonymous": false,
      "inputs": [
        {
          "indexed": false,
          "name": "voteQuorum",
          "type": "uint256"
        },
        {
          "indexed": false,
          "name": "commitEndDate",
          "type": "uint256"
        },
        {
          "indexed": false,
          "name": "revealEndDate",
          "type": "uint256"
        },
        {
          "indexed": true,
          "name": "pollID",
          "type": "uint256"
        },
        {
          "indexed": true,
          "name": "creator",
          "type": "address"
        }
      ],
      "name": "_PollCreated",
      "type": "event"
    },
    {
      "anonymous": false,
      "inputs": [
        {
          "indexed": false,
          "name": "numTokens",
          "type": "uint256"
        },
        {
          "indexed": true,
          "name": "voter",
          "type": "address"
        }
      ],
      "name": "_VotingRightsGranted",
      "type": "event"
    },
    {
      "anonymous": false,
      "inputs": [
        {
          "indexed": false,
          "name": "numTokens",
          "type": "uint256"
        },
        {
          "indexed": true,
          "name": "voter",
          "type": "address"
        }
      ],
      "name": "_VotingRightsWithdrawn",
      "type": "event"
    },
    {
      "anonymous": false,
      "inputs": [
        {
          "indexed": true,
          "name": "pollID",
          "type": "uint256"
        },
        {
          "indexed": true,
          "name": "voter",
          "type": "address"
        }
      ],
      "name": "_TokensRescued",
      "type": "event"
    },
    {
      "constant": false,
      "inputs": [
        {
          "name": "_token",
          "type": "address"
        },
        {
          "name": "_registry",
          "type": "address"
        }
      ],
      "name": "init",
      "outputs": [],
      "payable": false,
      "stateMutability": "nonpayable",
      "type": "function"
    },
    {
      "constant": false,
      "inputs": [
        {
          "name": "_numTokens",
          "type": "uint256"
        }
      ],
      "name": "requestVotingRights",
      "outputs": [],
      "payable": false,
      "stateMutability": "nonpayable",
      "type": "function"
    },
    {
      "constant": false,
      "inputs": [
        {
          "name": "_numTokens",
          "type": "uint256"
        }
      ],
      "name": "withdrawVotingRights",
      "outputs": [],
      "payable": false,
      "stateMutability": "nonpayable",
      "type": "function"
    },
    {
      "constant": false,
      "inputs": [
        {
          "name": "_numTokens",
          "type": "uint256"
        },
        {
          "name": "_voter",
          "type": "address"
        }
      ],
      "name": "withdrawVotingRights",
      "outputs": [],
      "payable": false,
      "stateMutability": "nonpayable",
      "type": "function"
    },
    {
      "constant": false,
      "inputs": [
        {
          "name": "_pollID",
          "type": "uint256"
        }
      ],
      "name": "rescueTokens",
      "outputs": [],
      "payable": false,
      "stateMutability": "nonpayable",
      "type": "function"
    },
    {
      "constant": false,
      "inputs": [
        {
          "name": "_pollIDs",
          "type": "uint256[]"
        }
      ],
      "name": "rescueTokensInMultiplePolls",
      "outputs": [],
      "payable": false,
      "stateMutability": "nonpayable",
      "type": "function"
    },
    {
      "constant": false,
      "inputs": [
        {
          "name": "_pollID",
          "type": "uint256"
        },
        {
          "name": "_secretHash",
          "type": "bytes32"
        },
        {
          "name": "_numTokens",
          "type": "uint256"
        },
        {
          "name": "_prevPollID",
          "type": "uint256"
        }
      ],
      "name": "commitVote",
      "outputs": [],
      "payable": false,
      "stateMutability": "nonpayable",
      "type": "function"
    },
    {
      "constant": false,
      "inputs": [
        {
          "name": "_pollIDs",
          "type": "uint256[]"
        },
        {
          "name": "_secretHashes",
          "type": "bytes32[]"
        },
        {
          "name": "_numsTokens",
          "type": "uint256[]"
        },
        {
          "name": "_prevPollIDs",
          "type": "uint256[]"
        }
      ],
      "name": "commitVotes",
      "outputs": [],
      "payable": false,
      "stateMutability": "nonpayable",
      "type": "function"
    },
    {
      "constant": true,
      "inputs": [
        {
          "name": "_prevID",
          "type": "uint256"
        },
        {
          "name": "_nextID",
          "type": "uint256"
        },
        {
          "name": "_voter",
          "type": "address"
        },
        {
          "name": "_numTokens",
          "type": "uint256"
        }
      ],
      "name": "validPosition",
      "outputs": [
        {
          "name": "valid",
          "type": "bool"
        }
      ],
      "payable": false,
      "stateMutability": "view",
      "type": "function"
    },
    {
      "constant": false,
      "inputs": [
        {
          "name": "_pollID",
          "type": "uint256"
        },
        {
          "name": "_voteOption",
          "type": "uint256"
        },
        {
          "name": "_salt",
          "type": "uint256"
        }
      ],
      "name": "revealVote",
      "outputs": [],
      "payable": false,
      "stateMutability": "nonpayable",
      "type": "function"
    },
    {
      "constant": false,
      "inputs": [
        {
          "name": "_pollIDs",
          "type": "uint256[]"
        },
        {
          "name": "_voteOptions",
          "type": "uint256[]"
        },
        {
          "name": "_salts",
          "type": "uint256[]"
        }
      ],
      "name": "revealVotes",
      "outputs": [],
      "payable": false,
      "stateMutability": "nonpayable",
      "type": "function"
    },
    {
      "constant": true,
      "inputs": [
        {
          "name": "_voter",
          "type": "address"
        },
        {
          "name": "_pollID",
          "type": "uint256"
        }
      ],
      "name": "getNumPassingTokens",
      "outputs": [
        {
          "name": "correctVotes",
          "type": "uint256"
        }
      ],
      "payable": false,
      "stateMutability": "view",
      "type": "function"
    },
    {
      "constant": false,
      "inputs": [
        {
          "name": "_voteQuorum",
          "type": "uint256"
        },
        {
          "name": "_commitDuration",
          "type": "uint256"
        },
        {
          "name": "_revealDuration",
          "type": "uint256"
        }
      ],
      "name": "startPoll",
      "outputs": [
        {
          "name": "pollID",
          "type": "uint256"
        }
      ],
      "payable": false,
      "stateMutability": "nonpayable",
      "type": "function"
    },
    {
      "constant": true,
      "inputs": [
        {
          "name": "_pollID",
          "type": "uint256"
        }
      ],
      "name": "isPassed",
      "outputs": [
        {
          "name": "passed",
          "type": "bool"
        }
      ],
      "payable": false,
      "stateMutability": "view",
      "type": "function"
    },
    {
      "constant": true,
      "inputs": [
        {
          "name": "_pollID",
          "type": "uint256"
        }
      ],
      "name": "getTotalNumberOfTokensForWinningOption",
      "outputs": [
        {
          "name": "numTokens",
          "type": "uint256"
        }
      ],
      "payable": false,
      "stateMutability": "view",
      "type": "function"
    },
    {
      "constant": true,
      "inputs": [
        {
          "name": "_pollID",
          "type": "uint256"
        }
      ],
      "name": "pollEnded",
      "outputs": [
        {
          "name": "ended",
          "type": "bool"
        }
      ],
      "payable": false,
      "stateMutability": "view",
      "type": "function"
    },
    {
      "constant": true,
      "inputs": [
        {
          "name": "_pollID",
          "type": "uint256"
        }
      ],
      "name": "commitPeriodActive",
      "outputs": [
        {
          "name": "active",
          "type": "bool"
        }
      ],
      "payable": false,
      "stateMutability": "view",
      "type": "function"
    },
    {
      "constant": true,
      "inputs": [
        {
          "name": "_pollID",
          "type": "uint256"
        }
      ],
      "name": "revealPeriodActive",
      "outputs": [
        {
          "name": "active",
          "type": "bool"
        }
      ],
      "payable": false,
      "stateMutability": "view",
      "type": "function"
    },
    {
      "constant": true,
      "inputs": [
        {
          "name": "_voter",
          "type": "address"
        },
        {
          "name": "_pollID",
          "type": "uint256"
        }
      ],
      "name": "didCommit",
      "outputs": [
        {
          "name": "committed",
          "type": "bool"
        }
      ],
      "payable": false,
      "stateMutability": "view",
      "type": "function"
    },
    {
      "constant": true,
      "inputs": [
        {
          "name": "_voter",
          "type": "address"
        },
        {
          "name": "_pollID",
          "type": "uint256"
        }
      ],
      "name": "didReveal",
      "outputs": [
        {
          "name": "revealed",
          "type": "bool"
        }
      ],
      "payable": false,
      "stateMutability": "view",
      "type": "function"
    },
    {
      "constant": true,
      "inputs": [
        {
          "name": "_pollID",
          "type": "uint256"
        }
      ],
      "name": "pollExists",
      "outputs": [
        {
          "name": "exists",
          "type": "bool"
        }
      ],
      "payable": false,
      "stateMutability": "view",
      "type": "function"
    },
    {
      "constant": true,
      "inputs": [
        {
          "name": "_voter",
          "type": "address"
        },
        {
          "name": "_pollID",
          "type": "uint256"
        }
      ],
      "name": "getCommitHash",
      "outputs": [
        {
          "name": "commitHash",
          "type": "bytes32"
        }
      ],
      "payable": false,
      "stateMutability": "view",
      "type": "function"
    },
    {
      "constant": true,
      "inputs": [
        {
          "name": "_voter",
          "type": "address"
        },
        {
          "name": "_pollID",
          "type": "uint256"
        }
      ],
      "name": "getNumTokens",
      "outputs": [
        {
          "name": "numTokens",
          "type": "uint256"
        }
      ],
      "payable": false,
      "stateMutability": "view",
      "type": "function"
    },
    {
      "constant": true,
      "inputs": [
        {
          "name": "_voter",
          "type": "address"
        }
      ],
      "name": "getLastNode",
      "outputs": [
        {
          "name": "pollID",
          "type": "uint256"
        }
      ],
      "payable": false,
      "stateMutability": "view",
      "type": "function"
    },
    {
      "constant": true,
      "inputs": [
        {
          "name": "_voter",
          "type": "address"
        }
      ],
      "name": "getLockedTokens",
      "outputs": [
        {
          "name": "numTokens",
          "type": "uint256"
        }
      ],
      "payable": false,
      "stateMutability": "view",
      "type": "function"
    },
    {
      "constant": true,
      "inputs": [
        {
          "name": "_voter",
          "type": "address"
        }
      ],
      "name": "getNotLockedTokens",
      "outputs": [
        {
          "name": "numTokens",
          "type": "uint256"
        }
      ],
      "payable": false,
      "stateMutability": "view",
      "type": "function"
    },
    {
      "constant": true,
      "inputs": [
        {
          "name": "_voter",
          "type": "address"
        },
        {
          "name": "_numTokens",
          "type": "uint256"
        },
        {
          "name": "_pollID",
          "type": "uint256"
        }
      ],
      "name": "getInsertPointForNumTokens",
      "outputs": [
        {
          "name": "prevNode",
          "type": "uint256"
        }
      ],
      "payable": false,
      "stateMutability": "view",
      "type": "function"
    },
    {
      "constant": true,
      "inputs": [
        {
          "name": "_terminationDate",
          "type": "uint256"
        }
      ],
      "name": "isExpired",
      "outputs": [
        {
          "name": "expired",
          "type": "bool"
        }
      ],
      "payable": false,
      "stateMutability": "view",
      "type": "function"
    },
    {
      "constant": true,
      "inputs": [
        {
          "name": "_user",
          "type": "address"
        },
        {
          "name": "_pollID",
          "type": "uint256"
        }
      ],
      "name": "attrUUID",
      "outputs": [
        {
          "name": "UUID",
          "type": "bytes32"
        }
      ],
      "payable": false,
      "stateMutability": "pure",
      "type": "function"
    }
  ],
  "bytecode": "0x608060405234801561001057600080fd5b50611ec7806100206000396000f30060806040526004361061019d5763ffffffff60e060020a6000350416630245d97881146101a2578063053e71a6146101d55780630c03fbd7146101ed5780632173a10f146102115780632c0520311461022657806332ed3d601461024d5780633b9302941461026b5780633ec36b991461028c578063427fa1d2146102d2578063441c77c0146102f357806348cbd8f81461031f57806349403183146103435780636148fed51461035b5780636b2d95d41461039e5780636cbf9c5e146103bf5780637b103999146103e05780637f97e836146104115780638090f92e14610435578063819b02931461046d57806388d21ff31461049757806397508f36146104af57806397603560146104c4578063a1103f37146104dc578063a25236fe14610500578063a4439dc514610518578063aa7ca46414610530578063b11d8bb814610554578063bb11ed7e14610572578063d1382092146105c7578063d901402b146105eb578063d9548e531461060f578063e7b1d43c14610627578063ee6848301461063f578063f09a401614610657578063fc0c546a1461067e575b600080fd5b3480156101ae57600080fd5b506101c3600160a060020a0360043516610693565b60408051918252519081900360200190f35b3480156101e157600080fd5b506101c36004356106ce565b3480156101f957600080fd5b506101c3600160a060020a0360043516602435610722565b34801561021d57600080fd5b506101c3610833565b34801561023257600080fd5b506101c3600160a060020a0360043516602435604435610838565b34801561025957600080fd5b506101c36004356024356044356109d5565b34801561027757600080fd5b506101c3600160a060020a0360043516610ab1565b34801561029857600080fd5b506102d06024600480358281019290820135918135808301929082013591604435808301929082013591606435918201910135610ac3565b005b3480156102de57600080fd5b506101c3600160a060020a0360043516610b63565b3480156102ff57600080fd5b5061030b600435610c07565b604080519115158252519081900360200190f35b34801561032b57600080fd5b506102d0600435600160a060020a0360243516610c51565b34801561034f57600080fd5b5061030b600435610d82565b34801561036757600080fd5b50610373600435610dff565b6040805195865260208601949094528484019290925260608401526080830152519081900360a00190f35b3480156103aa57600080fd5b506101c3600160a060020a0360043516610e2d565b3480156103cb57600080fd5b506102d0600435602435604435606435610e41565b3480156103ec57600080fd5b506103f561130e565b60408051600160a060020a039092168252519081900360200190f35b34801561041d57600080fd5b5061030b600160a060020a036004351660243561131d565b34801561044157600080fd5b506102d06024600480358281019290820135918135808301929082013591604435918201910135611362565b34801561047957600080fd5b5061030b600435602435600160a060020a03604435166064356113de565b3480156104a357600080fd5b5061030b60043561141f565b3480156104bb57600080fd5b506101c3611434565b3480156104d057600080fd5b506102d060043561143a565b3480156104e857600080fd5b506101c3600160a060020a03600435166024356115b2565b34801561050c57600080fd5b506102d0600435611656565b34801561052457600080fd5b5061030b6004356117da565b34801561053c57600080fd5b5061030b600160a060020a0360043516602435611808565b34801561056057600080fd5b506102d060043560243560443561184d565b34801561057e57600080fd5b50604080516020600480358082013583810280860185019096528085526102d095369593946024949385019291829185019084908082843750949750611aee9650505050505050565b3480156105d357600080fd5b506101c3600160a060020a0360043516602435611b26565b3480156105f757600080fd5b506101c3600160a060020a0360043516602435611be7565b34801561061b57600080fd5b5061030b600435611c76565b34801561063357600080fd5b506102d0600435611c7b565b34801561064b57600080fd5b5061030b600435611d7c565b34801561066357600080fd5b506102d0600160a060020a0360043581169060243516611dae565b34801561068a57600080fd5b506103f5611e0c565b60006106c66106a183610e2d565b600160a060020a0384166000908152600260205260409020549063ffffffff611e1b16565b90505b919050565b60006106d982611d7c565b15156106e457600080fd5b6106ed82610d82565b1561070a57506000818152600160205260409020600301546106c9565b506000818152600160205260409020600401546106c9565b600080600061073084611d7c565b151561073b57600080fd5b6000848152600160209081526040808320600160a060020a038916845260060190915290205460ff16151561076f57600080fd5b61077884610d82565b610783576000610786565b60015b6000858152600160209081526040808320600160a060020a038a16845260070190915290205460ff9190911692509050808214610820576040805160e560020a62461bcd02815260206004820152602760248201527f566f7465722072657665616c65642c20627574206e6f7420696e20746865206d604482015260c860020a66616a6f7269747902606482015290519081900360840190fd5b61082a8585611b26565b95945050505050565b600081565b600080600061084686610b63565b91506108528683611b26565b90505b81156109c8576108658683611b26565b9050848111610921578382141561091957600160a060020a038616600090815260036020908152604091829020825160e160020a63187f0505028152600481019190915260248101859052915173__DLL___________________________________926330fe0a0a926044808301939192829003018186803b1580156108ea57600080fd5b505af41580156108fe573d6000803e3d6000fd5b505050506040513d602081101561091457600080fd5b505191505b8192506109cc565b600160a060020a038616600090815260036020908152604091829020825160e160020a63187f0505028152600481019190915260248101859052915173__DLL___________________________________926330fe0a0a926044808301939192829003018186803b15801561099557600080fd5b505af41580156109a9573d6000803e3d6000fd5b505050506040513d60208110156109bf57600080fd5b50519150610855565b8192505b50509392505050565b60008054600101815580806109f0428663ffffffff611e3216565b9150610a02828563ffffffff611e3216565b6040805160a08101825284815260208082018481528284018b8152600060608086018281526080870183815283548452600180885289852098518955955195880195909555925160028701559151600386015591516004909401939093555483518b8152918201879052818401859052925193945033937f404f1f1c229d9eb2a949e7584da6ffde9d059ef2169f487ca815434cce0640d0929181900390910190a35050600054949350505050565b60026020526000908152604090205481565b6000878614610ad157600080fd5b878414610add57600080fd5b878214610ae957600080fd5b5060005b87811015610b5857610b50898983818110610b0457fe5b905060200201358888848181101515610b1957fe5b60200291909101359050878785818110610b2f57fe5b905060200201358686868181101515610b4457fe5b90506020020135610e41565b600101610aed565b505050505050505050565b600160a060020a0381166000908152600360209081526040808320815160e160020a63187f0505028152600481019190915260248101849052905173__DLL___________________________________926330fe0a0a9260448082019391829003018186803b158015610bd557600080fd5b505af4158015610be9573d6000803e3d6000fd5b505050506040513d6020811015610bff57600080fd5b505192915050565b6000610c128261141f565b1515610c1d57600080fd5b60008281526001602081905260409091200154610c3990611c76565b1580156106c65750610c4a826117da565b1592915050565b600654600090600160a060020a03163314610c6b57600080fd5b610c7482610693565b905082811015610c8357600080fd5b600160a060020a038216600090815260026020526040902054610cac908463ffffffff611e1b16565b600160a060020a03808416600081815260026020908152604080832095909555600554855160e060020a63a9059cbb0281526004810194909452602484018990529451949093169363a9059cbb936044808501949193918390030190829087803b158015610d1957600080fd5b505af1158015610d2d573d6000803e3d6000fd5b505050506040513d6020811015610d4357600080fd5b50511515610d5057600080fd5b604080518481529051600160a060020a03841691600080516020611e7c833981519152919081900360200190a2505050565b6000610d8c611e4b565b610d9583611d7c565b1515610da057600080fd5b5050600090815260016020818152604092839020835160a0810185528154815292810154918301919091526002810154928201839052600381015460608301819052600490910154608090920182905290810190910260649091021190565b6001602081905260009182526040909120805491810154600282015460038301546004909301549192909185565b60006106c682610e3c84610b63565b611b26565b6000806000610e4f876117da565b1515610e5a57600080fd5b33600090815260026020526040902054851115610e9d5733600090815260026020526040902054610e9290869063ffffffff611e1b16565b9250610e9d83611656565b33600090815260026020526040902054851115610eb957600080fd5b861515610ec557600080fd5b851515610ed157600080fd5b831580610f71575033600090815260036020908152604091829020825160e160020a631b352dd1028152600481019190915260248101879052915173__DLL___________________________________9263366a5ba2926044808301939192829003018186803b158015610f4457600080fd5b505af4158015610f58573d6000803e3d6000fd5b505050506040513d6020811015610f6e57600080fd5b50515b1515610f7c57600080fd5b33600090815260036020908152604091829020825160e060020a6307d29ac9028152600481019190915260248101879052915173__DLL___________________________________926307d29ac9926044808301939192829003018186803b158015610fe757600080fd5b505af4158015610ffb573d6000803e3d6000fd5b505050506040513d602081101561101157600080fd5b50519150868214156110b75733600090815260036020908152604091829020825160e060020a6307d29ac90281526004810191909152602481018a9052915173__DLL___________________________________926307d29ac9926044808301939192829003018186803b15801561108857600080fd5b505af415801561109c573d6000803e3d6000fd5b505050506040513d60208110156110b257600080fd5b505191505b6110c3848333886113de565b15156110ce57600080fd5b33600090815260036020526040808220815160e060020a639735c51b028152600481019190915260248101879052604481018a905260648101859052905173__DLL___________________________________92639735c51b9260848082019391829003018186803b15801561114357600080fd5b505af4158015611157573d6000803e3d6000fd5b5050505061116533886115b2565b6040805160e060020a63977aa0310281526004818101526024810183905260648101889052608060448201526009608482015260b860020a686e756d546f6b656e730260a4820152905191925073__AttributeStore________________________9163977aa0319160c480820192600092909190829003018186803b1580156111ee57600080fd5b505af4158015611202573d6000803e3d6000fd5b50506040805160e060020a63977aa03102815260048181015260248101859052606481018a905260806044820152600a608482015260b360020a690c6dedadad2e890c2e6d0260a4820152905173__AttributeStore________________________935063977aa031925060c4808301926000929190829003018186803b15801561128c57600080fd5b505af41580156112a0573d6000803e3d6000fd5b5050506000888152600160208181526040808420338086526005909101835293819020805460ff1916909317909255815189815291519293508a927fea7979e4280d7e6bffc1c7d83a1ac99f16d02ecc14465ce41016226783b663d79281900390910190a350505050505050565b600654600160a060020a031681565b60006113288261141f565b151561133357600080fd5b506000908152600160209081526040808320600160a060020a0394909416835260059093019052205460ff1690565b600085841461137057600080fd5b85821461137c57600080fd5b5060005b858110156113d5576113cd87878381811061139757fe5b9050602002013586868481811015156113ac57fe5b9050602002013585858581811015156113c157fe5b9050602002013561184d565b600101611380565b50505050505050565b60008060006113ed8588611b26565b84101591506113fc8587611b26565b84111580611408575085155b90508180156114145750805b979650505050505050565b600081158015906106c6575050600054101590565b60005481565b6000818152600160208190526040909120015461145690611c76565b151561146157600080fd5b33600090815260036020908152604091829020825160e160020a631b352dd1028152600481019190915260248101849052915173__DLL___________________________________9263366a5ba2926044808301939192829003018186803b1580156114cc57600080fd5b505af41580156114e0573d6000803e3d6000fd5b505050506040513d60208110156114f657600080fd5b5051151561150357600080fd5b33600090815260036020526040808220815160e460020a6306d900ed028152600481019190915260248101849052905173__DLL___________________________________92636d900ed09260448082019391829003018186803b15801561156a57600080fd5b505af415801561157e573d6000803e3d6000fd5b50506040513392508391507f402507661c8c8cb90e0a796450b8bdd28b6c516f05279c0cd29e84c344e1699a90600090a350565b600082826040516020018083600160a060020a0316600160a060020a0316606060020a028152601401828152602001925050506040516020818303038152906040526040518082805190602001908083835b602083106116235780518252601f199092019160209182019101611604565b5181516020939093036101000a600019018019909116921691909117905260405192018290039091209695505050505050565b6005546040805160e060020a6370a0823102815233600482015290518392600160a060020a0316916370a082319160248083019260209291908290030181600087803b1580156116a557600080fd5b505af11580156116b9573d6000803e3d6000fd5b505050506040513d60208110156116cf57600080fd5b505110156116dc57600080fd5b336000908152600260205260409020546116fc908263ffffffff611e3216565b33600081815260026020908152604080832094909455600554845160e060020a6323b872dd0281526004810194909452306024850152604484018690529351600160a060020a03909416936323b872dd93606480820194918390030190829087803b15801561176a57600080fd5b505af115801561177e573d6000803e3d6000fd5b505050506040513d602081101561179457600080fd5b505115156117a157600080fd5b60408051828152905133917ff7aaf024511d9982df8cd0d437c71c30106e6848cd1ba3d288d7a9c0e276aeda919081900360200190a250565b60006117e58261141f565b15156117f057600080fd5b600082815260016020526040902054610c4a90611c76565b60006118138261141f565b151561181e57600080fd5b506000908152600160209081526040808320600160a060020a0394909416835260069093019052205460ff1690565b600061185884610c07565b151561186357600080fd5b600084815260016020908152604080832033845260050190915290205460ff16151561188e57600080fd5b600084815260016020908152604080832033845260060190915290205460ff16156118b857600080fd5b6118c23385611be7565b604080516020808201879052818301869052825180830384018152606090920192839052815191929182918401908083835b602083106119135780518252601f1990920191602091820191016118f4565b6001836020036101000a03801982511681845116808217855250505050505090500191505060405180910390206000191614151561195057600080fd5b61195a3385611b26565b9050826001141561199e57600084815260016020526040902060030154611987908263ffffffff611e3216565b6000858152600160205260409020600301556119d3565b6000848152600160205260409020600401546119c0908263ffffffff611e3216565b6000858152600160205260409020600401555b33600090815260036020526040808220815160e460020a6306d900ed028152600481019190915260248101879052905173__DLL___________________________________92636d900ed09260448082019391829003018186803b158015611a3a57600080fd5b505af4158015611a4e573d6000803e3d6000fd5b505050600085815260016020818152604080842033808652600682018452828620805460ff1916861790558086526007820184528286208a9055948a9052928252600383015460049093015481518781529283019390935281810192909252606081018690529051919250859187917f9b19aaec524fad29c0ced9b9973a15e3045d7c3be156d71394ab40f0d5f119ff919081900360800190a450505050565b60005b8151811015611b2257611b1a8282815181101515611b0b57fe5b9060200190602002015161143a565b600101611af1565b5050565b600073__AttributeStore________________________6350389f5c6004611b4e86866115b2565b6040805160e060020a63ffffffff861602815260048101939093526024830191909152606060448301526009606483015260b860020a686e756d546f6b656e730260848301525160a4808301926020929190829003018186803b158015611bb457600080fd5b505af4158015611bc8573d6000803e3d6000fd5b505050506040513d6020811015611bde57600080fd5b50519392505050565b600073__AttributeStore________________________6350389f5c6004611c0f86866115b2565b6040805160e060020a63ffffffff86160281526004810193909352602483019190915260606044830152600a606483015260b360020a690c6dedadad2e890c2e6d0260848301525160a4808301926020929190829003018186803b158015611bb457600080fd5b421190565b6000611c8633610693565b905081811015611c9557600080fd5b33600090815260026020526040902054611cb5908363ffffffff611e1b16565b33600081815260026020908152604080832094909455600554845160e060020a63a9059cbb0281526004810194909452602484018790529351600160a060020a039094169363a9059cbb93604480820194918390030190829087803b158015611d1d57600080fd5b505af1158015611d31573d6000803e3d6000fd5b505050506040513d6020811015611d4757600080fd5b50511515611d5457600080fd5b6040805183815290513391600080516020611e7c833981519152919081900360200190a25050565b6000611d878261141f565b1515611d9257600080fd5b600082815260016020819052604090912001546106c690611c76565b600160a060020a03821615801590611dcf5750600554600160a060020a0316155b1515611dda57600080fd5b60058054600160a060020a03938416600160a060020a0319918216179091556006805492909316911617905560008055565b600554600160a060020a031681565b60008083831115611e2b57600080fd5b5050900390565b600082820183811015611e4457600080fd5b9392505050565b60a060405190810160405280600081526020016000815260200160008152602001600081526020016000815250905600faeb7dbb9992397d26ea1944efd40c80b40f702faf69b46c67ad10aba68ccb79a165627a7a723058206a0e116880dcc4ea1ed8d203ba61ad0fec8ce8f4df553492610f5d09fa06041a0029",
  "source": "pragma solidity ^0.4.24;\n\nimport \"./zeppelin/IERC20.sol\";\nimport \"./zeppelin/SafeMath.sol\";\nimport \"./DLL.sol\";\nimport \"./AttributeStore.sol\";\n\n/**\n * @title Partial-Lock-Commit-Reveal Voting scheme with ERC20 tokens\n * @author Team: Aspyn Palatnick, Cem Ozer, Yorke Rhodes\n * Modified by: Xivis Team to apply to Decentraland Needs\n */\ncontract PLCRVoting {\n\n    // -----------------------\n    // EVENTS:\n    // -----------------------\n\n    event _VoteCommitted(uint indexed pollID, uint numTokens, address indexed voter);\n    event _VoteRevealed(uint indexed pollID, uint numTokens, uint votesFor, uint votesAgainst, uint indexed choice, address indexed voter, uint salt);\n    event _PollCreated(uint voteQuorum, uint commitEndDate, uint revealEndDate, uint indexed pollID, address indexed creator);\n    event _VotingRightsGranted(uint numTokens, address indexed voter);\n    event _VotingRightsWithdrawn(uint numTokens, address indexed voter);\n    event _TokensRescued(uint indexed pollID, address indexed voter);\n\n    // -----------------------\n    // DATA STRUCTURES:\n    // -----------------------\n\n    using AttributeStore for AttributeStore.Data;\n    using DLL for DLL.Data;\n    using SafeMath for uint;\n\n    struct Poll {\n        uint commitEndDate;     /// expiration date of commit period for poll\n        uint revealEndDate;     /// expiration date of reveal period for poll\n        uint voteQuorum;        /// number of votes required for a proposal to pass\n        uint votesFor;          /// tally of votes supporting proposal\n        uint votesAgainst;      /// tally of votes countering proposal\n        mapping(address => bool) didCommit;   /// indicates whether an address committed a vote for this poll\n        mapping(address => bool) didReveal;   /// indicates whether an address revealed a vote for this poll\n        mapping(address => uint) voteOptions; /// stores the voteOption of an address that revealed\n    }\n\n    // -----------------------\n    // STATE VARIABLES:\n    // -----------------------\n\n    uint constant public INITIAL_POLL_NONCE = 0;\n    uint public pollNonce;\n\n    mapping(uint => Poll) public pollMap; // maps pollID to Poll struct\n    mapping(address => uint) public voteTokenBalance; // maps user's address to voteToken balance\n\n    mapping(address => DLL.Data) dllMap;\n    AttributeStore.Data store;\n\n    IERC20 public token;\n    address public registry;\n\n    /**\n     * @dev Initializer. Can only be called once.\n     * @param _token The address where the ERC20 token contract is deployed\n     * @param _registry The address of the corresponding registry contract\n     */\n    function init(address _token, address _registry) public {\n        require(_token != address(0) && address(token) == address(0));\n\n        token = IERC20(_token);\n        registry = _registry;\n        pollNonce = INITIAL_POLL_NONCE;\n    }\n\n    // ----------------\n    // TOKEN INTERFACE:\n    // ----------------\n\n    /**\n     * Loads _numTokens ERC20 tokens into the voting contract for one-to-one voting rights\n     * @dev Assumes that msg.sender has approved voting contract to spend on their behalf\n     * @param _numTokens The number of votingTokens desired in exchange for ERC20 tokens\n     */\n    function requestVotingRights(uint _numTokens) public {\n        require(token.balanceOf(msg.sender) >= _numTokens);\n        voteTokenBalance[msg.sender] = voteTokenBalance[msg.sender].add(_numTokens);\n        require(token.transferFrom(msg.sender, this, _numTokens));\n        emit _VotingRightsGranted(_numTokens, msg.sender);\n    }\n\n    /**\n     * Withdraw _numTokens ERC20 tokens from the voting contract, revoking these voting rights\n     * @param _numTokens The number of ERC20 tokens desired in exchange for voting rights\n     */\n    function withdrawVotingRights(uint _numTokens) external {\n        uint availableTokens = getNotLockedTokens(msg.sender);\n        require(availableTokens >= _numTokens);\n        voteTokenBalance[msg.sender] = voteTokenBalance[msg.sender].sub(_numTokens);\n        require(token.transfer(msg.sender, _numTokens));\n        emit _VotingRightsWithdrawn(_numTokens, msg.sender);\n    }\n\n    /**\n     * Withdraw _numTokens ERC20 tokens from the voting contract, revoking these voting rights\n     * @dev To be used by the corresponding Registry contract when a Vote make a ClaimReward\n     * @param _numTokens The number of ERC20 tokens desired in exchange for voting rights\n     * @param _voter Address of user that make the tx to the Registry\n     */\n    function withdrawVotingRights(uint _numTokens, address _voter) external {\n        require(msg.sender == registry);\n        uint availableTokens = getNotLockedTokens(_voter);\n        require(availableTokens >= _numTokens);\n        voteTokenBalance[_voter] = voteTokenBalance[_voter].sub(_numTokens);\n        require(token.transfer(_voter, _numTokens));\n        emit _VotingRightsWithdrawn(_numTokens, _voter);\n    }\n\n    /**\n     * Unlocks tokens locked in unrevealed vote where poll has ended\n     * @dev Remember that after the rescue to remain in this contract, need to use \"withdrawVotingRights\" if want it.\n     * @param _pollID Integer identifier associated with the target poll\n     */\n    function rescueTokens(uint _pollID) public {\n        require(isExpired(pollMap[_pollID].revealEndDate));\n        require(dllMap[msg.sender].contains(_pollID));\n\n        dllMap[msg.sender].remove(_pollID);\n        emit _TokensRescued(_pollID, msg.sender);\n    }\n\n    /**\n     * Unlocks tokens locked in unrevealed votes where polls have ended\n     * @param _pollIDs Array of integer identifiers associated with the target polls\n     */\n    function rescueTokensInMultiplePolls(uint[] _pollIDs) public {\n        // loop through arrays, rescuing tokens from all\n        for (uint i = 0; i < _pollIDs.length; i++) {\n            rescueTokens(_pollIDs[i]);\n        }\n    }\n\n    // -----------------\n    // VOTING INTERFACE:\n    // -----------------\n\n    /**\n     * Commits vote using hash of choice and secret salt to conceal vote until reveal\n     * @param _pollID Integer identifier associated with target poll\n     * @param _secretHash Commit keccak256 hash of voter's choice and salt (tightly packed in this order)\n     * @param _numTokens The number of tokens to be committed towards the target poll\n     * @param _prevPollID The ID of the poll that the user has voted the maximum number of tokens in which is still less than or equal to numTokens\n     */\n    function commitVote(uint _pollID, bytes32 _secretHash, uint _numTokens, uint _prevPollID) public {\n        require(commitPeriodActive(_pollID));\n\n        // if msg.sender doesn't have enough voting rights,\n        // request for enough voting rights\n        if (voteTokenBalance[msg.sender] < _numTokens) {\n            uint remainder = _numTokens.sub(voteTokenBalance[msg.sender]);\n            requestVotingRights(remainder);\n        }\n\n        // make sure msg.sender has enough voting rights\n        require(voteTokenBalance[msg.sender] >= _numTokens);\n        // prevent user from committing to zero node placeholder\n        require(_pollID != 0);\n        // prevent user from committing a secretHash of 0\n        require(_secretHash != 0);\n\n        // Check if _prevPollID exists in the user's DLL or if _prevPollID is 0\n        require(_prevPollID == 0 || dllMap[msg.sender].contains(_prevPollID));\n\n        uint nextPollID = dllMap[msg.sender].getNext(_prevPollID);\n\n        // edge case: in-place update\n        if (nextPollID == _pollID) {\n            nextPollID = dllMap[msg.sender].getNext(_pollID);\n        }\n\n        require(validPosition(_prevPollID, nextPollID, msg.sender, _numTokens));\n        dllMap[msg.sender].insert(_prevPollID, _pollID, nextPollID);\n\n        bytes32 UUID = attrUUID(msg.sender, _pollID);\n\n        store.setAttribute(UUID, \"numTokens\", _numTokens);\n        store.setAttribute(UUID, \"commitHash\", uint(_secretHash));\n\n        pollMap[_pollID].didCommit[msg.sender] = true;\n        emit _VoteCommitted(_pollID, _numTokens, msg.sender);\n    }\n\n    /**\n     * Commits votes using hashes of choices and secret salts to conceal votes until reveal\n     * @param _pollIDs Array of integer identifiers associated with target polls\n     * @param _secretHashes Array of commit keccak256 hashes of voter's choices and salts (tightly packed in this order)\n     * @param _numsTokens Array of numbers of tokens to be committed towards the target polls\n     * @param _prevPollIDs Array of IDs of the polls that the user has voted the maximum number of tokens in which is still less than or equal to numTokens\n     */\n    function commitVotes(uint[] _pollIDs, bytes32[] _secretHashes, uint[] _numsTokens, uint[] _prevPollIDs) external {\n        // make sure the array lengths are all the same\n        require(_pollIDs.length == _secretHashes.length);\n        require(_pollIDs.length == _numsTokens.length);\n        require(_pollIDs.length == _prevPollIDs.length);\n\n        // loop through arrays, committing each individual vote values\n        for (uint i = 0; i < _pollIDs.length; i++) {\n            commitVote(_pollIDs[i], _secretHashes[i], _numsTokens[i], _prevPollIDs[i]);\n        }\n    }\n\n    /**\n     * Compares previous and next poll's committed tokens for sorting purposes\n     * @param _prevID Integer identifier associated with previous poll in sorted order\n     * @param _nextID Integer identifier associated with next poll in sorted order\n     * @param _voter Address of user to check DLL position for\n     * @param _numTokens The number of tokens to be committed towards the poll (used for sorting)\n     * @return valid Boolean indication of if the specified position maintains the sort\n     */\n    function validPosition(uint _prevID, uint _nextID, address _voter, uint _numTokens) public constant returns (bool valid) {\n        bool prevValid = (_numTokens >= getNumTokens(_voter, _prevID));\n        // if next is zero node, _numTokens does not need to be greater\n        bool nextValid = (_numTokens <= getNumTokens(_voter, _nextID) || _nextID == 0);\n        return prevValid && nextValid;\n    }\n\n    /**\n     * Reveals vote with choice and secret salt used in generating commitHash to attribute committed tokens\n     * @param _pollID Integer identifier associated with target poll\n     * @param _voteOption Vote choice used to generate commitHash for associated poll\n     * @param _salt Secret number used to generate commitHash for associated poll\n     */\n    function revealVote(uint _pollID, uint _voteOption, uint _salt) public {\n        // Make sure the reveal period is active\n        require(revealPeriodActive(_pollID));\n        require(pollMap[_pollID].didCommit[msg.sender]);\n        // make sure user has committed a vote for this poll\n        require(!pollMap[_pollID].didReveal[msg.sender]);\n        // prevent user from revealing multiple times\n        require(keccak256(abi.encodePacked(_voteOption, _salt)) == getCommitHash(msg.sender, _pollID));\n        // compare resultant hash from inputs to original commitHash\n\n        uint numTokens = getNumTokens(msg.sender, _pollID);\n\n        if (_voteOption == 1) {// apply numTokens to appropriate poll choice\n            pollMap[_pollID].votesFor = pollMap[_pollID].votesFor.add(numTokens);\n        } else {\n            pollMap[_pollID].votesAgainst = pollMap[_pollID].votesAgainst.add(numTokens);\n        }\n\n        dllMap[msg.sender].remove(_pollID);\n        // remove the node referring to this vote upon reveal\n        pollMap[_pollID].didReveal[msg.sender] = true;\n        pollMap[_pollID].voteOptions[msg.sender] = _voteOption;\n\n        emit _VoteRevealed(_pollID, numTokens, pollMap[_pollID].votesFor, pollMap[_pollID].votesAgainst, _voteOption, msg.sender, _salt);\n    }\n\n    /**\n     * Reveals multiple votes with choices and secret salts used in generating commitHashes to attribute committed tokens\n     * @param _pollIDs     Array of integer identifiers associated with target polls\n     * @param _voteOptions Array of vote choices used to generate commitHashes for associated polls\n     * @param _salts       Array of secret numbers used to generate commitHashes for associated polls\n     */\n    function revealVotes(uint[] _pollIDs, uint[] _voteOptions, uint[] _salts) external {\n        // make sure the array lengths are all the same\n        require(_pollIDs.length == _voteOptions.length);\n        require(_pollIDs.length == _salts.length);\n\n        // loop through arrays, revealing each individual vote values\n        for (uint i = 0; i < _pollIDs.length; i++) {\n            revealVote(_pollIDs[i], _voteOptions[i], _salts[i]);\n        }\n    }\n\n    /**\n     * Gets the number of tokens that a voter who voted in the majority bloc has committed\n     * @param _voter Address of voter who voted in the majority bloc\n     * @param _pollID Integer identifier associated with target poll\n     * @return correctVotes Number of tokens voted for winning option\n     */\n    function getNumPassingTokens(address _voter, uint _pollID) public constant returns (uint correctVotes) {\n        require(pollEnded(_pollID));\n        require(pollMap[_pollID].didReveal[_voter]);\n\n        uint winningChoice = isPassed(_pollID) ? 1 : 0;\n        uint voterVoteOption = pollMap[_pollID].voteOptions[_voter];\n\n        require(voterVoteOption == winningChoice, \"Voter revealed, but not in the majority\");\n\n        return getNumTokens(_voter, _pollID);\n    }\n\n    // ------------------\n    // POLLING INTERFACE:\n    // ------------------\n\n    /**\n     * Initiates a poll with canonical configured parameters at pollID emitted by PollCreated event\n     * @param _voteQuorum Type of majority (out of 100) that is necessary for poll to be successful\n     * @param _commitDuration Length of desired commit period in seconds\n     * @param _revealDuration Length of desired reveal period in seconds\n     */\n    function startPoll(uint _voteQuorum, uint _commitDuration, uint _revealDuration) public returns (uint pollID) {\n        pollNonce = pollNonce + 1;\n\n        uint commitEndDate = block.timestamp.add(_commitDuration);\n        uint revealEndDate = commitEndDate.add(_revealDuration);\n\n        pollMap[pollNonce] = Poll({\n            voteQuorum : _voteQuorum,\n            commitEndDate : commitEndDate,\n            revealEndDate : revealEndDate,\n            votesFor : 0,\n            votesAgainst : 0\n            });\n\n        emit _PollCreated(_voteQuorum, commitEndDate, revealEndDate, pollNonce, msg.sender);\n        return pollNonce;\n    }\n\n    /**\n     * Determines if proposal has passed\n     * @dev Check if votesFor out of totalVotes exceeds votesQuorum (requires pollEnded)\n     * @param _pollID Integer identifier associated with target poll\n     */\n    function isPassed(uint _pollID) constant public returns (bool passed) {\n        require(pollEnded(_pollID));\n\n        Poll memory poll = pollMap[_pollID];\n        return (100 * poll.votesFor) > (poll.voteQuorum * (poll.votesFor + poll.votesAgainst));\n    }\n\n    // --------------\n    // POLLS HELPERS:\n    // --------------\n\n    /**\n     * Gets the total winning votes for reward distribution purposes\n     * @param _pollID Integer identifier associated with target poll\n     * @return Total number of votes committed to the winning option for specified poll\n     */\n    function getTotalNumberOfTokensForWinningOption(uint _pollID) constant public returns (uint numTokens) {\n        require(pollEnded(_pollID));\n\n        if (isPassed(_pollID))\n            return pollMap[_pollID].votesFor;\n        else\n            return pollMap[_pollID].votesAgainst;\n    }\n\n    /**\n     * Determines if poll is over\n     * @dev Checks isExpired for specified poll's revealEndDate\n     * @return Boolean indication of whether polling period is over\n     */\n    function pollEnded(uint _pollID) constant public returns (bool ended) {\n        require(pollExists(_pollID));\n\n        return isExpired(pollMap[_pollID].revealEndDate);\n    }\n\n    /**\n     * Checks if the commit period is still active for the specified poll\n     * @dev Checks isExpired for the specified poll's commitEndDate\n     * @param _pollID Integer identifier associated with target poll\n     * @return Boolean indication of isCommitPeriodActive for target poll\n     */\n    function commitPeriodActive(uint _pollID) constant public returns (bool active) {\n        require(pollExists(_pollID));\n\n        return !isExpired(pollMap[_pollID].commitEndDate);\n    }\n\n    /**\n     * Checks if the reveal period is still active for the specified poll\n     * @dev Checks isExpired for the specified poll's revealEndDate\n     * @param _pollID Integer identifier associated with target poll\n     */\n    function revealPeriodActive(uint _pollID) constant public returns (bool active) {\n        require(pollExists(_pollID));\n\n        return !isExpired(pollMap[_pollID].revealEndDate) && !commitPeriodActive(_pollID);\n    }\n\n    /**\n     * Checks if user has committed for specified poll\n     * @param _voter Address of user to check against\n     * @param _pollID Integer identifier associated with target poll\n     * @return Boolean indication of whether user has committed\n     */\n    function didCommit(address _voter, uint _pollID) constant public returns (bool committed) {\n        require(pollExists(_pollID));\n\n        return pollMap[_pollID].didCommit[_voter];\n    }\n\n    /**\n     * Checks if user has revealed for specified poll\n     * @param _voter Address of user to check against\n     * @param _pollID Integer identifier associated with target poll\n     * @return Boolean indication of whether user has revealed\n     */\n    function didReveal(address _voter, uint _pollID) constant public returns (bool revealed) {\n        require(pollExists(_pollID));\n\n        return pollMap[_pollID].didReveal[_voter];\n    }\n\n    /**\n     * @dev Checks if a poll exists\n     * @param _pollID The pollID whose existance is to be evaluated.\n     * @return Boolean Indicates whether a poll exists for the provided pollID\n     */\n    function pollExists(uint _pollID) constant public returns (bool exists) {\n        return (_pollID != 0 && _pollID <= pollNonce);\n    }\n\n    // ---------------------------\n    // DOUBLE-LINKED-LIST HELPERS:\n    // ---------------------------\n\n    /**\n     * Gets the bytes32 commitHash property of target poll\n     * @param _voter Address of user to check against\n     * @param _pollID Integer identifier associated with target poll\n     * @return Bytes32 hash property attached to target poll\n     */\n    function getCommitHash(address _voter, uint _pollID) constant public returns (bytes32 commitHash) {\n        return bytes32(store.getAttribute(attrUUID(_voter, _pollID), \"commitHash\"));\n    }\n\n    /**\n     * Wrapper for getAttribute with attrName=\"numTokens\"\n     * @param _voter Address of user to check against\n     * @param _pollID Integer identifier associated with target poll\n     * @return Number of tokens committed to poll in sorted poll-linked-list\n     */\n    function getNumTokens(address _voter, uint _pollID) constant public returns (uint numTokens) {\n        return store.getAttribute(attrUUID(_voter, _pollID), \"numTokens\");\n    }\n\n    /**\n     * Gets top element of sorted poll-linked-list\n     * @param _voter Address of user to check against\n     * @return Integer identifier to poll with maximum number of tokens committed to it\n     */\n    function getLastNode(address _voter) constant public returns (uint pollID) {\n        return dllMap[_voter].getPrev(0);\n    }\n\n    /**\n     * Gets the numTokens property of getLastNode\n     * @param _voter Address of user to check against\n     * @return Maximum number of tokens committed in poll specified\n     */\n    function getLockedTokens(address _voter) constant public returns (uint numTokens) {\n        return getNumTokens(_voter, getLastNode(_voter));\n    }\n\n    /**\n     * Gets the numTokens available to withdraw (aka not locked tokens in this contract)\n     * @param _voter Address of user to check against\n     * @return number of tokens not committed in any poll\n     */\n    function getNotLockedTokens(address _voter) constant public returns (uint numTokens) {\n        return voteTokenBalance[_voter].sub(getLockedTokens(_voter));\n    }\n\n    /**\n     * Gets the insert point Node for amount of tokens\n     * @dev Takes the last node in the user's DLL and iterates backwards through the list searching\n     * for a node with a value less than or equal to the provided _numTokens value. When such a node\n     * is found, if the provided _pollID matches the found nodeID, this operation is an in-place\n     * update. In that case, return the previous node of the node being updated. Otherwise return the\n     * first node that was found with a value less than or equal to the provided _numTokens.\n     * @param _voter The voter whose DLL will be searched\n     * @param _numTokens The value for the numTokens attribute in the node to be inserted\n     * @return the node which the propoded node should be inserted after\n     */\n    function getInsertPointForNumTokens(address _voter, uint _numTokens, uint _pollID) constant public returns (uint prevNode) {\n        // Get the last node in the list and the number of tokens in that node\n        uint nodeID = getLastNode(_voter);\n        uint tokensInNode = getNumTokens(_voter, nodeID);\n\n        // Iterate backwards through the list until reaching the root node\n        while (nodeID != 0) {\n            // Get the number of tokens in the current node\n            tokensInNode = getNumTokens(_voter, nodeID);\n            if (tokensInNode <= _numTokens) {// We found the insert point!\n                if (nodeID == _pollID) {\n                    // This is an in-place update. Return the prev node of the node being updated\n                    nodeID = dllMap[_voter].getPrev(nodeID);\n                }\n                // Return the insert point\n                return nodeID;\n            }\n            // We did not find the insert point. Continue iterating backwards through the list\n            nodeID = dllMap[_voter].getPrev(nodeID);\n        }\n\n        // The list is empty, or a smaller value than anything else in the list is being inserted\n        return nodeID;\n    }\n\n    // ----------------\n    // GENERAL HELPERS:\n    // ----------------\n\n    /**\n     * Checks if an expiration date has been reached\n     * @param _terminationDate Integer timestamp of date to compare current timestamp with\n     * @return expired Boolean indication of whether the terminationDate has passed\n     */\n    function isExpired(uint _terminationDate) constant public returns (bool expired) {\n        return (block.timestamp > _terminationDate);\n    }\n\n    /**\n     * Generates an identifier which associates a user and a poll together\n     * @param _pollID Integer identifier associated with target poll\n     * @return UUID Hash which is deterministic from _user and _pollID\n     */\n    function attrUUID(address _user, uint _pollID) public pure returns (bytes32 UUID) {\n        return keccak256(abi.encodePacked(_user, _pollID));\n    }\n}\n",
  "sourcePath": "/Users/agustinferreira/Projects/xivis/decentraland/decentraland-tcr/contracts/PLCRVoting.sol",
  "compiler": {
    "name": "solc",
    "version": "0.4.24+commit.e67f0147.Emscripten.clang"
  },
  "schemaVersion": "2.0.0",
  "updatedAt": "2019-01-23T18:08:50.522Z"
}