{
  "contractName": "Registry",
  "abi": [
    {
      "constant": true,
      "inputs": [],
      "name": "name",
      "outputs": [
        {
          "name": "",
          "type": "string"
        }
      ],
      "payable": false,
      "stateMutability": "view",
      "type": "function"
    },
    {
      "constant": true,
      "inputs": [
        {
          "name": "",
          "type": "uint256"
        }
      ],
      "name": "challenges",
      "outputs": [
        {
          "name": "rewardPool",
          "type": "uint256"
        },
        {
          "name": "challenger",
          "type": "address"
        },
        {
          "name": "resolved",
          "type": "bool"
        },
        {
          "name": "stake",
          "type": "uint256"
        },
        {
          "name": "totalTokens",
          "type": "uint256"
        }
      ],
      "payable": false,
      "stateMutability": "view",
      "type": "function"
    },
    {
      "constant": true,
      "inputs": [
        {
          "name": "",
          "type": "bytes32"
        }
      ],
      "name": "listings",
      "outputs": [
        {
          "name": "applicationExpiry",
          "type": "uint256"
        },
        {
          "name": "whitelisted",
          "type": "bool"
        },
        {
          "name": "owner",
          "type": "address"
        },
        {
          "name": "unstakedDeposit",
          "type": "uint256"
        },
        {
          "name": "challengeID",
          "type": "uint256"
        },
        {
          "name": "exitTime",
          "type": "uint256"
        },
        {
          "name": "exitTimeExpiry",
          "type": "uint256"
        }
      ],
      "payable": false,
      "stateMutability": "view",
      "type": "function"
    },
    {
      "constant": true,
      "inputs": [
        {
          "name": "",
          "type": "bytes32"
        }
      ],
      "name": "params",
      "outputs": [
        {
          "name": "",
          "type": "uint256"
        }
      ],
      "payable": false,
      "stateMutability": "view",
      "type": "function"
    },
    {
      "constant": true,
      "inputs": [],
      "name": "token",
      "outputs": [
        {
          "name": "",
          "type": "address"
        }
      ],
      "payable": false,
      "stateMutability": "view",
      "type": "function"
    },
    {
      "constant": true,
      "inputs": [],
      "name": "voting",
      "outputs": [
        {
          "name": "",
          "type": "address"
        }
      ],
      "payable": false,
      "stateMutability": "view",
      "type": "function"
    },
    {
      "anonymous": false,
      "inputs": [
        {
          "indexed": true,
          "name": "listingHash",
          "type": "bytes32"
        },
        {
          "indexed": false,
          "name": "deposit",
          "type": "uint256"
        },
        {
          "indexed": false,
          "name": "appEndDate",
          "type": "uint256"
        },
        {
          "indexed": false,
          "name": "data",
          "type": "string"
        },
        {
          "indexed": true,
          "name": "applicant",
          "type": "address"
        }
      ],
      "name": "_Application",
      "type": "event"
    },
    {
      "anonymous": false,
      "inputs": [
        {
          "indexed": true,
          "name": "listingHash",
          "type": "bytes32"
        },
        {
          "indexed": false,
          "name": "challengeID",
          "type": "uint256"
        },
        {
          "indexed": false,
          "name": "data",
          "type": "string"
        },
        {
          "indexed": false,
          "name": "commitEndDate",
          "type": "uint256"
        },
        {
          "indexed": false,
          "name": "revealEndDate",
          "type": "uint256"
        },
        {
          "indexed": true,
          "name": "challenger",
          "type": "address"
        }
      ],
      "name": "_Challenge",
      "type": "event"
    },
    {
      "anonymous": false,
      "inputs": [
        {
          "indexed": true,
          "name": "listingHash",
          "type": "bytes32"
        },
        {
          "indexed": false,
          "name": "withdrew",
          "type": "uint256"
        },
        {
          "indexed": false,
          "name": "newTotal",
          "type": "uint256"
        },
        {
          "indexed": true,
          "name": "owner",
          "type": "address"
        }
      ],
      "name": "_Withdrawal",
      "type": "event"
    },
    {
      "anonymous": false,
      "inputs": [
        {
          "indexed": true,
          "name": "listingHash",
          "type": "bytes32"
        }
      ],
      "name": "_ApplicationWhitelisted",
      "type": "event"
    },
    {
      "anonymous": false,
      "inputs": [
        {
          "indexed": true,
          "name": "listingHash",
          "type": "bytes32"
        }
      ],
      "name": "_ApplicationRemoved",
      "type": "event"
    },
    {
      "anonymous": false,
      "inputs": [
        {
          "indexed": true,
          "name": "listingHash",
          "type": "bytes32"
        }
      ],
      "name": "_ListingRemoved",
      "type": "event"
    },
    {
      "anonymous": false,
      "inputs": [
        {
          "indexed": true,
          "name": "listingHash",
          "type": "bytes32"
        },
        {
          "indexed": true,
          "name": "owner",
          "type": "address"
        }
      ],
      "name": "_ListingWithdrawn",
      "type": "event"
    },
    {
      "anonymous": false,
      "inputs": [
        {
          "indexed": true,
          "name": "listingHash",
          "type": "bytes32"
        },
        {
          "indexed": true,
          "name": "challengeID",
          "type": "uint256"
        },
        {
          "indexed": false,
          "name": "rewardPool",
          "type": "uint256"
        },
        {
          "indexed": false,
          "name": "totalTokens",
          "type": "uint256"
        }
      ],
      "name": "_ChallengeFailed",
      "type": "event"
    },
    {
      "anonymous": false,
      "inputs": [
        {
          "indexed": true,
          "name": "listingHash",
          "type": "bytes32"
        },
        {
          "indexed": true,
          "name": "challengeID",
          "type": "uint256"
        },
        {
          "indexed": false,
          "name": "rewardPool",
          "type": "uint256"
        },
        {
          "indexed": false,
          "name": "totalTokens",
          "type": "uint256"
        }
      ],
      "name": "_ChallengeSucceeded",
      "type": "event"
    },
    {
      "anonymous": false,
      "inputs": [
        {
          "indexed": true,
          "name": "challengeID",
          "type": "uint256"
        },
        {
          "indexed": false,
          "name": "reward",
          "type": "uint256"
        },
        {
          "indexed": true,
          "name": "voter",
          "type": "address"
        }
      ],
      "name": "_RewardClaimed",
      "type": "event"
    },
    {
      "anonymous": false,
      "inputs": [
        {
          "indexed": true,
          "name": "listingHash",
          "type": "bytes32"
        },
        {
          "indexed": false,
          "name": "exitTime",
          "type": "uint256"
        },
        {
          "indexed": false,
          "name": "exitDelayEndDate",
          "type": "uint256"
        },
        {
          "indexed": true,
          "name": "owner",
          "type": "address"
        }
      ],
      "name": "_ExitInitialized",
      "type": "event"
    },
    {
      "constant": false,
      "inputs": [
        {
          "name": "_token",
          "type": "address"
        },
        {
          "name": "_voting",
          "type": "address"
        },
        {
          "name": "_parameters",
          "type": "uint256[]"
        },
        {
          "name": "_name",
          "type": "string"
        }
      ],
      "name": "init",
      "outputs": [],
      "payable": false,
      "stateMutability": "nonpayable",
      "type": "function"
    },
    {
      "constant": false,
      "inputs": [
        {
          "name": "_listingHash",
          "type": "bytes32"
        },
        {
          "name": "_amount",
          "type": "uint256"
        },
        {
          "name": "_data",
          "type": "string"
        }
      ],
      "name": "apply",
      "outputs": [],
      "payable": false,
      "stateMutability": "nonpayable",
      "type": "function"
    },
    {
      "constant": false,
      "inputs": [
        {
          "name": "_listingHash",
          "type": "bytes32"
        },
        {
          "name": "_data",
          "type": "string"
        }
      ],
      "name": "challenge",
      "outputs": [
        {
          "name": "challengeID",
          "type": "uint256"
        }
      ],
      "payable": false,
      "stateMutability": "nonpayable",
      "type": "function"
    },
    {
      "constant": false,
      "inputs": [
        {
          "name": "_listingHash",
          "type": "bytes32"
        }
      ],
      "name": "updateStatus",
      "outputs": [],
      "payable": false,
      "stateMutability": "nonpayable",
      "type": "function"
    },
    {
      "constant": false,
      "inputs": [
        {
          "name": "_listingHashes",
          "type": "bytes32[]"
        }
      ],
      "name": "updateStatuses",
      "outputs": [],
      "payable": false,
      "stateMutability": "nonpayable",
      "type": "function"
    },
    {
      "constant": false,
      "inputs": [
        {
          "name": "_listingHash",
          "type": "bytes32"
        },
        {
          "name": "_amount",
          "type": "uint256"
        }
      ],
      "name": "withdraw",
      "outputs": [],
      "payable": false,
      "stateMutability": "nonpayable",
      "type": "function"
    },
    {
      "constant": false,
      "inputs": [
        {
          "name": "_listingHash",
          "type": "bytes32"
        }
      ],
      "name": "initExit",
      "outputs": [],
      "payable": false,
      "stateMutability": "nonpayable",
      "type": "function"
    },
    {
      "constant": false,
      "inputs": [
        {
          "name": "_listingHash",
          "type": "bytes32"
        }
      ],
      "name": "finalizeExit",
      "outputs": [],
      "payable": false,
      "stateMutability": "nonpayable",
      "type": "function"
    },
    {
      "constant": false,
      "inputs": [
        {
          "name": "_challengeID",
          "type": "uint256"
        }
      ],
      "name": "claimReward",
      "outputs": [],
      "payable": false,
      "stateMutability": "nonpayable",
      "type": "function"
    },
    {
      "constant": false,
      "inputs": [
        {
          "name": "_challengeIDs",
          "type": "uint256[]"
        }
      ],
      "name": "claimRewards",
      "outputs": [],
      "payable": false,
      "stateMutability": "nonpayable",
      "type": "function"
    },
    {
      "constant": true,
      "inputs": [
        {
          "name": "_name",
          "type": "string"
        }
      ],
      "name": "get",
      "outputs": [
        {
          "name": "value",
          "type": "uint256"
        }
      ],
      "payable": false,
      "stateMutability": "view",
      "type": "function"
    },
    {
      "constant": true,
      "inputs": [
        {
          "name": "_voter",
          "type": "address"
        },
        {
          "name": "_challengeID",
          "type": "uint256"
        }
      ],
      "name": "voterReward",
      "outputs": [
        {
          "name": "",
          "type": "uint256"
        }
      ],
      "payable": false,
      "stateMutability": "view",
      "type": "function"
    },
    {
      "constant": true,
      "inputs": [
        {
          "name": "_listingHash",
          "type": "bytes32"
        }
      ],
      "name": "canBeWhitelisted",
      "outputs": [
        {
          "name": "",
          "type": "bool"
        }
      ],
      "payable": false,
      "stateMutability": "view",
      "type": "function"
    },
    {
      "constant": true,
      "inputs": [
        {
          "name": "_listingHash",
          "type": "bytes32"
        }
      ],
      "name": "appPeriodActive",
      "outputs": [
        {
          "name": "active",
          "type": "bool"
        }
      ],
      "payable": false,
      "stateMutability": "view",
      "type": "function"
    },
    {
      "constant": true,
      "inputs": [
        {
          "name": "_listingHash",
          "type": "bytes32"
        }
      ],
      "name": "isWhitelisted",
      "outputs": [
        {
          "name": "whitelisted",
          "type": "bool"
        }
      ],
      "payable": false,
      "stateMutability": "view",
      "type": "function"
    },
    {
      "constant": true,
      "inputs": [
        {
          "name": "_listingHash",
          "type": "bytes32"
        }
      ],
      "name": "appWasMade",
      "outputs": [
        {
          "name": "exists",
          "type": "bool"
        }
      ],
      "payable": false,
      "stateMutability": "view",
      "type": "function"
    },
    {
      "constant": true,
      "inputs": [
        {
          "name": "_listingHash",
          "type": "bytes32"
        }
      ],
      "name": "challengeExists",
      "outputs": [
        {
          "name": "",
          "type": "bool"
        }
      ],
      "payable": false,
      "stateMutability": "view",
      "type": "function"
    },
    {
      "constant": true,
      "inputs": [
        {
          "name": "_listingHash",
          "type": "bytes32"
        }
      ],
      "name": "challengeCanBeResolved",
      "outputs": [
        {
          "name": "",
          "type": "bool"
        }
      ],
      "payable": false,
      "stateMutability": "view",
      "type": "function"
    },
    {
      "constant": true,
      "inputs": [
        {
          "name": "_challengeID",
          "type": "uint256"
        }
      ],
      "name": "determineReward",
      "outputs": [
        {
          "name": "",
          "type": "uint256"
        }
      ],
      "payable": false,
      "stateMutability": "view",
      "type": "function"
    },
    {
      "constant": true,
      "inputs": [
        {
          "name": "_challengeID",
          "type": "uint256"
        },
        {
          "name": "_voter",
          "type": "address"
        }
      ],
      "name": "tokenClaims",
      "outputs": [
        {
          "name": "",
          "type": "bool"
        }
      ],
      "payable": false,
      "stateMutability": "view",
      "type": "function"
    }
  ],
  "bytecode": "0x608060405234801561001057600080fd5b50612498806100206000396000f30060806040526004361061013a5763ffffffff60e060020a60003504166301a5e3fe811461013f578063040cf0201461016b57806306fdde031461018857806307b99366146102125780630960db7c1461022a57806311b43809146102425780631b7bbecb1461025a57806343cffefe146102725780635eac6239146102a8578063691a38ab146102fd578063693ec85e146103155780637733c0f11461036e57806377609a411461041757806389bb55c71461042f5780638a59eb56146104575780638c82dccb1461046f5780638cf8151f146104c45780638f1d3776146104dc578063a5ba3b1e14610527578063ae169a501461054b578063bd0ae40514610563578063c18b8db414610587578063c8187cf1146105df578063dc6ab527146105f7578063fc0c546a1461060f578063fce1ccca14610640575b600080fd5b34801561014b57600080fd5b50610157600435610655565b604080519115158252519081900360200190f35b34801561017757600080fd5b50610186600435602435610671565b005b34801561019457600080fd5b5061019d6107ef565b6040805160208082528351818301528351919283929083019185019080838360005b838110156101d75781810151838201526020016101bf565b50505050905090810190601f1680156102045780820380516001836020036101000a031916815260200191505b509250505060405180910390f35b34801561021e57600080fd5b5061018660043561087d565b34801561023657600080fd5b506101866004356109f2565b34801561024e57600080fd5b50610157600435610ad9565b34801561026657600080fd5b50610157600435610b04565b34801561027e57600080fd5b50610296600480359060248035908101910135610b47565b60408051918252519081900360200190f35b3480156102b457600080fd5b506040805160206004803580820135838102808601850190965280855261018695369593946024949385019291829185019084908082843750949750610fc79650505050505050565b34801561030957600080fd5b50610157600435610fff565b34801561032157600080fd5b506040805160206004803580820135601f810184900484028501840190955284845261029694369492936024939284019190819084018382808284375094975061108d9650505050505050565b34801561037a57600080fd5b506040805160206004604435818101358381028086018501909652808552610186958335600160a060020a03908116966024803590921696369695606495929493019282918501908490808284375050604080516020601f89358b018035918201839004830284018301909452808352979a99988101979196509182019450925082915084018382808284375094975061116a9650505050505050565b34801561042357600080fd5b506101576004356113f1565b34801561043b57600080fd5b506101866004803590602480359160443591820191013561149b565b34801561046357600080fd5b50610186600435611672565b34801561047b57600080fd5b5060408051602060048035808201358381028086018501909652808552610186953695939460249493850192918291850190849080828437509497506116a89650505050505050565b3480156104d057600080fd5b506101576004356116dc565b3480156104e857600080fd5b506104f46004356116ef565b60408051958652600160a060020a0390941660208601529115158484015260608401526080830152519081900360a00190f35b34801561053357600080fd5b50610157600435600160a060020a036024351661172b565b34801561055757600080fd5b50610186600435611758565b34801561056f57600080fd5b50610296600160a060020a0360043516602435611a35565b34801561059357600080fd5b5061059f600435611aec565b604080519788529515156020880152600160a060020a03909416868601526060860192909252608085015260a084015260c0830152519081900360e00190f35b3480156105eb57600080fd5b50610296600435611b31565b34801561060357600080fd5b50610296600435611ca9565b34801561061b57600080fd5b50610624611cbb565b60408051600160a060020a039092168252519081900360200190f35b34801561064c57600080fd5b50610624611cca565b6000818152600160208190526040909120015460ff165b919050565b6000828152600160208190526040909120908101546101009004600160a060020a0316331461069f57600080fd5b60028101548211156106b057600080fd5b6106de6040805190810160405280600a815260200160b260020a691b5a5b91195c1bdcda5d0281525061108d565b60028201546106f3908463ffffffff611cd916565b10156106fe57600080fd5b6002810154610713908363ffffffff611cd916565b6002820155600480546040805160e060020a63a9059cbb02815233938101939093526024830185905251600160a060020a039091169163a9059cbb9160448083019260209291908290030181600087803b15801561077057600080fd5b505af1158015610784573d6000803e3d6000fd5b505050506040513d602081101561079a57600080fd5b505115156107a757600080fd5b60028101546040805184815260208101929092528051339286927f9d9ed58779badf90c56d72f3b54def9f73dc875d8f86416c8334b55328c6c10692918290030190a3505050565b6003805460408051602060026001851615610100026000190190941693909304601f810184900484028201840190925281815292918301828280156108755780601f1061084a57610100808354040283529160200191610875565b820191906000526020600020905b81548152906001019060200180831161085857829003601f168201915b505050505081565b6000818152600160208190526040909120908101546101009004600160a060020a031633146108ab57600080fd5b6108b482610655565b15156108bf57600080fd5b600381015415806108ed5750600381015460009081526020819052604090206001015460a060020a900460ff165b15156108f857600080fd5b6004810154158061090c5750806005015442115b151561091757600080fd5b61095861094b6040805190810160405280600d8152602001609860020a6c6578697454696d6544656c61790281525061108d565b429063ffffffff611cf716565b600482015560408051808201909152600d8152609960020a6c32bc34ba2832b934b7b22632b70260208201526109a2906109919061108d565b60048301549063ffffffff611cf716565b6005820181905560048201546040805191825260208201929092528151339285927f4b137a01f77b8f1b4ccaca2abac799475d550c8adc298e399e75ee95d317b546929081900390910190a35050565b6000818152600160208190526040909120908101546101009004600160a060020a03163314610a2057600080fd5b610a2982610655565b1515610a3457600080fd5b60038101541580610a625750600381015460009081526020819052604090206001015460a060020a900460ff165b1515610a6d57600080fd5b6004810154600010610a7e57600080fd5b428160040154108015610a945750806005015442105b1515610a9f57600080fd5b610aa882611d10565b604051339083907f7d16ed55582bcf69d7bb762cda5b82042371fba7de3a8ebea4517079d892f52290600090a35050565b6000610ae4826116dc565b1515610aef57600080fd5b50600090815260016020526040902054421190565b6000818152600160205260408120600301548181118015610b3e575060008181526020819052604090206001015460a060020a900460ff16155b91505b50919050565b60008381526001602090815260408083208151808301909252600a825260b260020a691b5a5b91195c1bdcda5d029282019290925282908190819081908190610b8f9061108d565b9450610b9a8a6116dc565b80610ba95750600186015460ff165b1515610bb457600080fd5b60038601541580610be25750600386015460009081526020819052604090206001015460a060020a900460ff165b1515610bed57600080fd5b60055460408051808201909152600a815260b060020a69766f746551756f72756d026020820152600160a060020a03909116906332ed3d6090610c2f9061108d565b610c616040805190810160405280600e8152602001609160020a6d31b7b6b6b4ba29ba30b3b2a632b70281525061108d565b610c936040805190810160405280600e8152602001609160020a6d3932bb32b0b629ba30b3b2a632b70281525061108d565b6040518463ffffffff1660e060020a028152600401808481526020018381526020018281526020019350505050602060405180830381600087803b158015610cda57600080fd5b505af1158015610cee573d6000803e3d6000fd5b505050506040513d6020811015610d0457600080fd5b50516040805160e08101909152600f60a08201908152608a60020a6e191a5cdc195b9cd85d1a5bdb9418dd0260c083015291955060649450908190610d7d908690610d71908a90610d6590610d589061108d565b8a9063ffffffff611cd916565b9063ffffffff611e8516565b9063ffffffff611eb316565b8152336020808301919091526000604080840182905260608085018b9052608094850183905289835282845291819020855181559285015160018401805492870151151560a060020a0260a060020a60ff0219600160a060020a0393909316600160a060020a0319909416939093179190911691909117905583015160028083019190915592909101516003918201558701859055860154610e25908663ffffffff611cd916565b6002870155600480546040805160e060020a6323b872dd02815233938101939093523060248401526044830188905251600160a060020a03909116916323b872dd9160648083019260209291908290030181600087803b158015610e8857600080fd5b505af1158015610e9c573d6000803e3d6000fd5b505050506040513d6020811015610eb257600080fd5b50511515610ebf57600080fd5b6005546040805160e060020a636148fed5028152600481018790529051600160a060020a0390921691636148fed59160248082019260a0929091908290030181600087803b158015610f1057600080fd5b505af1158015610f24573d6000803e3d6000fd5b505050506040513d60a0811015610f3a57600080fd5b508051602091820151604080518881529081018390526060810182905260809381018481529381018c9052919450925033918c917ff98a08756a3603420a080d66764f73deb1e30896c315cfed03e17f88f5eb30f79188918e918e91899189919060a0820186868082843760405192018290039850909650505050505050a3509198975050505050505050565b60005b8151811015610ffb57610ff38282815181101515610fe457fe5b90602001906020020151611758565b600101610fca565b5050565b60008181526001602052604081206003015461101a836116dc565b8015611033575060008381526001602052604090205442115b8015611045575061104383610655565b155b801561107657508015806110765750600081815260208190526040902060019081015460a060020a900460ff161515145b156110845760019150610b41565b50600092915050565b600060026000836040516020018082805190602001908083835b602083106110c65780518252601f1990920191602091820191016110a7565b6001836020036101000a0380198251168184511680821785525050505050509050019150506040516020818303038152906040526040518082805190602001908083835b602083106111295780518252601f19909201916020918201910161110a565b51815160209384036101000a600019018019909216911617905260408051929094018290039091208652850195909552929092016000205495945050505050565b600160a060020a0384161580159061118b5750600454600160a060020a0316155b151561119657600080fd5b600160a060020a038316158015906111b75750600554600160a060020a0316155b15156111c257600080fd5b60048054600160a060020a03808716600160a060020a031992831617909255600580549286169290911691909117905580516112059060039060208401906123d1565b5061124d6040805190810160405280600a815260200160b260020a691b5a5b91195c1bdcda5d0281525083600081518110151561123e57fe5b90602001906020020151611ed6565b6112886040805190810160405280600d8152602001609960020a6c30b838363ca9ba30b3b2a632b70281525083600181518110151561123e57fe5b6112c46040805190810160405280600e8152602001609160020a6d31b7b6b6b4ba29ba30b3b2a632b70281525083600281518110151561123e57fe5b6113006040805190810160405280600e8152602001609160020a6d3932bb32b0b629ba30b3b2a632b70281525083600381518110151561123e57fe5b61133d6040805190810160405280600f8152602001608a60020a6e191a5cdc195b9cd85d1a5bdb9418dd0281525083600481518110151561123e57fe5b6113756040805190810160405280600a815260200160b060020a69766f746551756f72756d0281525083600581518110151561123e57fe5b6113b06040805190810160405280600d8152602001609860020a6c6578697454696d6544656c61790281525083600681518110151561123e57fe5b6113eb6040805190810160405280600d8152602001609960020a6c32bc34ba2832b934b7b22632b70281525083600781518110151561123e57fe5b50505050565b60008181526001602052604081206003015461140c83610b04565b151561141757600080fd5b6005546040805160e460020a630ee68483028152600481018490529051600160a060020a039092169163ee684830916024808201926020929091908290030181600087803b15801561146857600080fd5b505af115801561147c573d6000803e3d6000fd5b505050506040513d602081101561149257600080fd5b50519392505050565b60006114a685610655565b156114b057600080fd5b6114b9856116dc565b156114c357600080fd5b6114f16040805190810160405280600a815260200160b260020a691b5a5b91195c1bdcda5d0281525061108d565b8410156114fd57600080fd5b50600084815260016020818152604092839020918201805461010060a860020a03191633610100021790558251808401909352600d8352609960020a6c30b838363ca9ba30b3b2a632b702908301529061155a9061094b9061108d565b8155600281018490556004805460018301546040805160e060020a6323b872dd028152600160a060020a0361010090930483169481019490945230602485015260448401889052519116916323b872dd9160648083019260209291908290030181600087803b1580156115cc57600080fd5b505af11580156115e0573d6000803e3d6000fd5b505050506040513d60208110156115f657600080fd5b5051151561160357600080fd5b805460408051868152602081018390526060918101828152918101859052339288927fa27f550c3c7a7c6d8369e5383fdc7a3b4850d8ce9e20066f9d496f6989f00864928992918991899160808201848480828437604051920182900397509095505050505050a35050505050565b61167b81610fff565b1561168e5761168981611fb3565b6116a5565b611697816113f1565b1561013a576116898161201b565b50565b60005b8151811015610ffb576116d482828151811015156116c557fe5b90602001906020020151611672565b6001016116ab565b6000908152600160205260408120541190565b60006020819052908152604090208054600182015460028301546003909301549192600160a060020a0382169260a060020a90920460ff169185565b600082815260208181526040808320600160a060020a038516845260040190915290205460ff1692915050565b600081815260208181526040808320338452600481019092528220549091908190819060ff161561178857600080fd5b60018481015460a060020a900460ff161515146117a457600080fd5b6005546040805160e060020a630c03fbd7028152336004820152602481018890529051600160a060020a0390921691630c03fbd7916044808201926020929091908290030181600087803b1580156117fb57600080fd5b505af115801561180f573d6000803e3d6000fd5b505050506040513d602081101561182557600080fd5b50516003850154855491945061184691610d7190869063ffffffff611e8516565b600385018054859003905584548190038555336000818152600480880160209081526040808420805460ff191660011790558254815160e060020a63a9059cbb028152938401959095526024830186905251949650600160a060020a039093169363a9059cbb9360448084019491938390030190829087803b1580156118cb57600080fd5b505af11580156118df573d6000803e3d6000fd5b505050506040513d60208110156118f557600080fd5b5051151561190257600080fd5b6005546040805160e360020a6248bb2f0281523360048201529051600160a060020a0390921691630245d978916024808201926020929091908290030181600087803b15801561195157600080fd5b505af1158015611965573d6000803e3d6000fd5b505050506040513d602081101561197b57600080fd5b5051905060008111156119f7576005546040805160e360020a6309197b1f028152600481018490523360248201529051600160a060020a03909216916348cbd8f89160448082019260009290919082900301818387803b1580156119de57600080fd5b505af11580156119f2573d6000803e3d6000fd5b505050505b604080518381529051339187917f6f4c982acc31b0af2cf1dc1556f21c0325d893782d65e83c68a5534a33f599579181900360200190a35050505050565b60008181526020818152604080832060038101549054600554835160e060020a630c03fbd7028152600160a060020a038981166004830152602482018990529451939592948794921692630c03fbd79260448084019382900301818787803b158015611aa057600080fd5b505af1158015611ab4573d6000803e3d6000fd5b505050506040513d6020811015611aca57600080fd5b50519050611ae283610d71838563ffffffff611e8516565b9695505050505050565b600160208190526000918252604090912080549181015460028201546003830154600484015460059094015460ff841694610100909404600160a060020a0316939087565b60008181526020819052604081206001015460a060020a900460ff16158015611bd357506005546040805160e460020a630ee68483028152600481018590529051600160a060020a039092169163ee684830916024808201926020929091908290030181600087803b158015611ba657600080fd5b505af1158015611bba573d6000803e3d6000fd5b505050506040513d6020811015611bd057600080fd5b50515b1515611bde57600080fd5b6005546040805160e160020a63029f38d3028152600481018590529051600160a060020a039092169163053e71a6916024808201926020929091908290030181600087803b158015611c2f57600080fd5b505af1158015611c43573d6000803e3d6000fd5b505050506040513d6020811015611c5957600080fd5b50511515611c7c575060008181526020819052604090206002908101540261066c565b60008281526020819052604090208054600291820154611ca392029063ffffffff611cd916565b92915050565b60026020526000908152604090205481565b600454600160a060020a031681565b600554600160a060020a031681565b60008083831115611ce957600080fd5b5050808203805b5092915050565b600082820183811015611d0957600080fd5b9392505050565b6000818152600160208190526040822090810154909190819060ff1615611d615760405184907fd1ffb796b7108387b2f02adf47b4b81a1690cf2a190422c87a4f670780103e6390600090a2611d8d565b60405184907f2e5ec035f6eac8ff1cf7cdf36cfeca7c85413f9f67652dc2c13d20f337204a2690600090a25b505060018181015460028084015460008681526020859052604081208181559485018054600160a860020a031916905591840182905560038401829055600484018290556005909301819055610100909104600160a060020a031691908111156113eb57600480546040805160e060020a63a9059cbb028152600160a060020a0386811694820194909452602481018590529051929091169163a9059cbb916044808201926020929091908290030181600087803b158015611e4e57600080fd5b505af1158015611e62573d6000803e3d6000fd5b505050506040513d6020811015611e7857600080fd5b505115156113eb57600080fd5b600080831515611e985760009150611cf0565b50828202828482811515611ea857fe5b0414611d0957600080fd5b600080808311611ec257600080fd5b8284811515611ecd57fe5b04949350505050565b8060026000846040516020018082805190602001908083835b60208310611f0e5780518252601f199092019160209182019101611eef565b6001836020036101000a0380198251168184511680821785525050505050509050019150506040516020818303038152906040526040518082805190602001908083835b60208310611f715780518252601f199092019160209182019101611f52565b51815160209384036101000a60001901801990921691161790526040805192909401829003909120865285019590955292909201600020939093555050505050565b6000818152600160208190526040909120015460ff161515611ffb5760405181907fa7bc1d57d9006d9d248707c7b6828c1bab8c51719cc06d78c82a3ee891ef967c90600090a25b60009081526001602081905260409091208101805460ff19169091179055565b600081815260016020526040812060030154908061203883611b31565b600084815260208181526040808320600101805460a060020a60ff02191660a060020a179055600554815160e160020a63029f38d3028152600481018990529151949650600160a060020a03169363053e71a693602480840194938390030190829087803b1580156120a957600080fd5b505af11580156120bd573d6000803e3d6000fd5b505050506040513d60208110156120d357600080fd5b505160008481526020818152604080832060030193909355600554835160e060020a6349403183028152600481018890529351600160a060020a039091169363494031839360248083019493928390030190829087803b15801561213657600080fd5b505af115801561214a573d6000803e3d6000fd5b505050506040513d602081101561216057600080fd5b5051156122ce5761217084611fb3565b5060008281526020818152604080832060029081015487855260019093529220909101546121a4908263ffffffff611cf716565b60008581526001602081905260409091206002810192909255600454910154600160a060020a039182169163a9059cbb916101009004166121eb858563ffffffff611cd916565b6040518363ffffffff1660e060020a0281526004018083600160a060020a0316600160a060020a0316815260200182815260200192505050602060405180830381600087803b15801561223d57600080fd5b505af1158015612251573d6000803e3d6000fd5b505050506040513d602081101561226757600080fd5b5051151561227457600080fd5b6000838152602081815260409182902080546003909101548351918252918101919091528151859287927fc4497224aa78dd50c9b3e344aab02596201ca1e6dca4057a91a6c02f83f4f6c1929081900390910190a36113eb565b6122d784611d10565b6004805460008581526020818152604080832060010154815160e060020a63a9059cbb028152600160a060020a039182169681019690965260248601889052905193169363a9059cbb9360448083019491928390030190829087803b15801561233f57600080fd5b505af1158015612353573d6000803e3d6000fd5b505050506040513d602081101561236957600080fd5b5051151561237657600080fd5b6000838152602081815260409182902080546003909101548351918252918101919091528151859287927f362a12431f779a2baff4f77f75ba7960ae993a5c41b425df11f7fd0af2b9cbe6929081900390910190a350505050565b828054600181600116156101000203166002900490600052602060002090601f016020900481019282601f1061241257805160ff191683800117855561243f565b8280016001018555821561243f579182015b8281111561243f578251825591602001919060010190612424565b5061244b92915061244f565b5090565b61246991905b8082111561244b5760008155600101612455565b905600a165627a7a7230582037d31eb694119a174c4fafb8da63ba0853cc17006ce137a7277017002950fb8c0029",
  "source": "pragma solidity ^0.4.24;\n\nimport \"./zeppelin/IERC20.sol\";\nimport \"./zeppelin/SafeMath.sol\";\nimport \"./PLCRVoting.sol\";\n\ncontract Registry {\n\n    // -------\n    // EVENTS:\n    // -------\n\n    event _Application(bytes32 indexed listingHash, uint deposit, uint appEndDate, string data, address indexed applicant);\n    event _Challenge(bytes32 indexed listingHash, uint challengeID, string data, uint commitEndDate, uint revealEndDate, address indexed challenger);\n    event _Withdrawal(bytes32 indexed listingHash, uint withdrew, uint newTotal, address indexed owner);\n    event _ApplicationWhitelisted(bytes32 indexed listingHash);\n    event _ApplicationRemoved(bytes32 indexed listingHash);\n    event _ListingRemoved(bytes32 indexed listingHash);\n    event _ListingWithdrawn(bytes32 indexed listingHash, address indexed owner);\n    event _ChallengeFailed(bytes32 indexed listingHash, uint indexed challengeID, uint rewardPool, uint totalTokens);\n    event _ChallengeSucceeded(bytes32 indexed listingHash, uint indexed challengeID, uint rewardPool, uint totalTokens);\n    event _RewardClaimed(uint indexed challengeID, uint reward, address indexed voter);\n    event _ExitInitialized(bytes32 indexed listingHash, uint exitTime, uint exitDelayEndDate, address indexed owner);\n\n    using SafeMath for uint;\n\n    struct Listing {\n        uint applicationExpiry; // Expiration date of apply stage\n        bool whitelisted;       // Indicates registry status\n        address owner;          // Owner of Listing\n        uint unstakedDeposit;   // Number of tokens in the listing not locked in a challenge\n        uint challengeID;       // Corresponds to a PollID in PLCRVoting\n        uint exitTime;          // Time the listing may leave the registry\n        uint exitTimeExpiry;    // Expiration date of exit period\n    }\n\n    struct Challenge {\n        uint rewardPool;        // (remaining) Pool of tokens to be distributed to winning voters\n        address challenger;     // Owner of Challenge\n        bool resolved;          // Indication of if challenge is resolved\n        uint stake;             // Number of tokens at stake for either party during challenge\n        uint totalTokens;       // (remaining) Number of tokens used in voting by the winning side\n        mapping(address => bool) tokenClaims; // Indicates whether a voter has claimed a reward yet\n    }\n\n    // Maps challengeIDs to associated challenge data\n    mapping(uint => Challenge) public challenges;\n\n    // Maps listingHashes to associated listingHash data\n    mapping(bytes32 => Listing) public listings;\n\n    // Maps parameters string hashes to values\n    mapping(bytes32 => uint) public params;\n\n    // Base registry parameters\n    string public name;\n    IERC20 public token;\n    PLCRVoting public voting;\n\n    /**\n     * @dev Initializer. Can only be called once.\n     * @param _token The address where the ERC20 token contract is deployed\n     */\n    function init(address _token, address _voting, uint[] _parameters, string _name) public {\n        require(_token != 0 && address(token) == 0);\n        require(_voting != 0 && address(voting) == 0);\n\n        // Set deployed Token and Voting contracts of current Registry\n        token = IERC20(_token);\n        voting = PLCRVoting(_voting);\n\n        // Display name of the current registry\n        name = _name;\n\n        // minimum deposit for listing to be whitelisted\n        set(\"minDeposit\", _parameters[0]);\n\n        // period over which applicants wait to be whitelisted\n        set(\"applyStageLen\", _parameters[1]);\n\n        // length of commit period for voting\n        set(\"commitStageLen\", _parameters[2]);\n\n        // length of reveal period for voting\n        set(\"revealStageLen\", _parameters[3]);\n\n        // percentage of losing party's deposit distributed to winning party\n        set(\"dispensationPct\", _parameters[4]);\n\n        // type of majority out of 100 necessary for candidate success\n        set(\"voteQuorum\", _parameters[5]);\n\n        // minimum length of time user has to wait to exit the registry\n        set(\"exitTimeDelay\", _parameters[6]);\n\n        // maximum length of time user can wait to exit the registry\n        set(\"exitPeriodLen\", _parameters[7]);\n    }\n\n    // -----------------------\n    // TOKEN HOLDER INTERFACE:\n    // -----------------------\n\n    /**\n     * Allows a user to start an application to be part of the whitelist\n     * @dev Takes tokens from user and sets apply stage end time.\n     * @param _listingHash The hash of a potential listing a user is applying to add to the registry\n     * @param _amount The number of ERC20 tokens a user is willing to potentially stake\n     * @param _data Extra data relevant to the application. Think IPFS hashes.\n     */\n    function apply(bytes32 _listingHash, uint _amount, string _data) external {\n        require(!isWhitelisted(_listingHash));\n        require(!appWasMade(_listingHash));\n        require(_amount >= get(\"minDeposit\"));\n\n        // Sets owner\n        Listing storage listing = listings[_listingHash];\n        listing.owner = msg.sender;\n\n        // Sets apply stage end time\n        listing.applicationExpiry = block.timestamp.add(get(\"applyStageLen\"));\n        listing.unstakedDeposit = _amount;\n\n        // Transfers tokens from user to Registry contract\n        require(token.transferFrom(listing.owner, this, _amount));\n\n        emit _Application(_listingHash, _amount, listing.applicationExpiry, _data, msg.sender);\n    }\n\n    /**\n     * Starts a poll for a listingHash which is either in the apply stage or already in the whitelist.\n     * @dev Tokens are taken from the challenger and the applicant's deposits are locked.\n     * @param _listingHash The listingHash being challenged, whether listed or in application\n     * @param _data Extra data relevant to the challenge. Think IPFS hashes.\n     */\n    function challenge(bytes32 _listingHash, string _data) external returns (uint challengeID) {\n        Listing storage listing = listings[_listingHash];\n        uint minDeposit = get(\"minDeposit\");\n\n        // Listing must be in apply stage or already on the whitelist\n        require(appWasMade(_listingHash) || listing.whitelisted);\n        // Prevent multiple challenges\n        require(listing.challengeID == 0 || challenges[listing.challengeID].resolved);\n\n        // Starts poll\n        uint pollID = voting.startPoll(get(\"voteQuorum\"), get(\"commitStageLen\"), get(\"revealStageLen\"));\n\n        uint oneHundred = 100;\n        // Kludge that we need to use SafeMath\n        challenges[pollID] = Challenge({\n            challenger : msg.sender,\n            rewardPool : ((oneHundred.sub(get(\"dispensationPct\"))).mul(minDeposit)).div(100),\n            stake : minDeposit,\n            resolved : false,\n            totalTokens : 0\n            });\n\n        // Updates listingHash to store most recent challenge\n        listing.challengeID = pollID;\n\n        // Locks tokens for listingHash during challenge\n        listing.unstakedDeposit = listing.unstakedDeposit.sub(minDeposit);\n\n        // Takes tokens from challenger\n        require(token.transferFrom(msg.sender, this, minDeposit));\n\n        (uint commitEndDate, uint revealEndDate,,,) = voting.pollMap(pollID);\n\n        emit _Challenge(_listingHash, pollID, _data, commitEndDate, revealEndDate, msg.sender);\n        return pollID;\n    }\n\n    /**\n     * Updates a listingHash status from 'application' to 'listing' or resolves a challenge if one exists.\n     * @param _listingHash The listingHash whose status is being updated\n     */\n    function updateStatus(bytes32 _listingHash) public {\n        if (canBeWhitelisted(_listingHash)) {\n            whitelistApplication(_listingHash);\n        } else if (challengeCanBeResolved(_listingHash)) {\n            resolveChallenge(_listingHash);\n        } else {\n            revert();\n        }\n    }\n\n    /**\n     * Updates an array of listingHashes statuses from 'application' to 'listing' or resolves a challenge if one exists.\n     * @param _listingHashes The listingHashes whose status are being updated\n     */\n    function updateStatuses(bytes32[] _listingHashes) public {\n        // loop through arrays, revealing each individual vote values\n        for (uint i = 0; i < _listingHashes.length; i++) {\n            updateStatus(_listingHashes[i]);\n        }\n    }\n\n\n    // ------------------\n    // APPLIER INTERFACE:\n    // ------------------\n\n    /**\n     * Allows the owner of a listingHash to decrease their unstaked deposit\n     * @dev Unstaked deposit includes all challanges rewards\n     * @param _listingHash A listingHash msg.sender is the owner of.\n     * @param _amount The number of ERC20 tokens to withdraw from the unstaked deposit.\n     */\n    function withdraw(bytes32 _listingHash, uint _amount) external {\n        Listing storage listing = listings[_listingHash];\n\n        require(listing.owner == msg.sender);\n        require(_amount <= listing.unstakedDeposit);\n        require(listing.unstakedDeposit.sub(_amount) >= get(\"minDeposit\"));\n\n        listing.unstakedDeposit = listing.unstakedDeposit.sub(_amount);\n        require(token.transfer(msg.sender, _amount));\n\n        emit _Withdrawal(_listingHash, _amount, listing.unstakedDeposit, msg.sender);\n    }\n\n    /**\n     * Initialize an exit timer for a listing to leave the whitelist\n     * @param _listingHash\tA listing hash msg.sender is the owner of\n     */\n    function initExit(bytes32 _listingHash) external {\n        Listing storage listing = listings[_listingHash];\n\n        require(msg.sender == listing.owner);\n        require(isWhitelisted(_listingHash));\n        // Cannot exit during ongoing challenge\n        require(listing.challengeID == 0 || challenges[listing.challengeID].resolved);\n\n        // Ensure user never initializedExit or exitPeriodLen passed\n        require(listing.exitTime == 0 || now > listing.exitTimeExpiry);\n\n        // Set when the listing may be removed from the whitelist\n        listing.exitTime = now.add(get(\"exitTimeDelay\"));\n\n        // Set exit period end time\n        listing.exitTimeExpiry = listing.exitTime.add(get(\"exitPeriodLen\"));\n        emit _ExitInitialized(_listingHash, listing.exitTime, listing.exitTimeExpiry, msg.sender);\n    }\n\n    /**\n     * Allow a listing to leave the whitelist\n     * @param _listingHash A listing hash msg.sender is the owner of\n    */\n    function finalizeExit(bytes32 _listingHash) external {\n        Listing storage listing = listings[_listingHash];\n\n        require(msg.sender == listing.owner);\n        require(isWhitelisted(_listingHash));\n        // Cannot exit during ongoing challenge\n        require(listing.challengeID == 0 || challenges[listing.challengeID].resolved);\n\n        // Make sure the exit was initialized\n        require(listing.exitTime > 0);\n        // Time to exit has to be after exit delay but before the exitPeriodLen is over\n        require(listing.exitTime < now && now < listing.exitTimeExpiry);\n\n        resetListing(_listingHash);\n        emit _ListingWithdrawn(_listingHash, msg.sender);\n    }\n\n\n    // ----------------\n    // VOTER FUNCTIONS:\n    // ----------------\n\n    /**\n     * Called by a voter to their reward for each completed vote.\n     * @dev Someone must call updateStatus() before this can be called.\n     * @param _challengeID The voting pollID of the challenge a reward is being claimed for\n     */\n    function claimReward(uint _challengeID) public {\n        Challenge storage challengeInstance = challenges[_challengeID];\n        // Ensures the voter has not already claimed tokens and challengeInstance results have\n        // been processed\n        require(challengeInstance.tokenClaims[msg.sender] == false);\n        require(challengeInstance.resolved == true);\n\n        uint voterTokens = voting.getNumPassingTokens(msg.sender, _challengeID);\n        uint reward = voterTokens.mul(challengeInstance.rewardPool).div(challengeInstance.totalTokens);\n\n        // Subtracts the voter's information to preserve the participation ratios\n        // of other voters compared to the remaining pool of rewards\n        challengeInstance.totalTokens -= voterTokens;\n        challengeInstance.rewardPool -= reward;\n\n        // Ensures a voter cannot claim tokens again\n        challengeInstance.tokenClaims[msg.sender] = true;\n\n        require(token.transfer(msg.sender, reward));\n\n        // Unlock any tokens if there are not in currently ongoing poll\n        uint notLockedTokens = voting.getNotLockedTokens(msg.sender);\n        if (notLockedTokens > 0) {\n            voting.withdrawVotingRights(notLockedTokens, msg.sender);\n        }\n\n        emit _RewardClaimed(_challengeID, reward, msg.sender);\n    }\n\n    /**\n     * Called by a voter to claim their rewards for each completed vote.\n     * @dev Someone must call updateStatus() before this can be called.\n     * @param _challengeIDs The PLCR pollIDs of the challenges rewards are being claimed for\n     */\n    function claimRewards(uint[] _challengeIDs) public {\n        // loop through arrays, claiming each individual vote reward\n        for (uint i = 0; i < _challengeIDs.length; i++) {\n            claimReward(_challengeIDs[i]);\n        }\n    }\n\n\n    // ------------------\n    // GETTERS FUNCTIONS:\n    // ------------------\n\n    /**\n     * Gets the parameter keyed by the provided name value from the params mapping\n     * @param _name The key whose value is to be determined\n     * @return _name The key whose value is to be determined\n     */\n    function get(string _name) public view returns (uint value) {\n        return params[keccak256(abi.encodePacked(_name))];\n    }\n\n    /**\n     * Calculates the provided voter's token reward for the given poll.\n     * @param _voter The address of the voter whose reward balance is to be returned\n     * @param _challengeID The pollID of the challenge a reward balance is being queried for\n     * @return The uint indicating the voter's reward\n     */\n    function voterReward(address _voter, uint _challengeID) public view returns (uint) {\n        uint totalTokens = challenges[_challengeID].totalTokens;\n        uint rewardPool = challenges[_challengeID].rewardPool;\n        uint voterTokens = voting.getNumPassingTokens(_voter, _challengeID);\n        return voterTokens.mul(rewardPool).div(totalTokens);\n    }\n\n    /**\n     * Determines whether the given listingHash be whitelisted.\n     * @param _listingHash The listingHash whose status is to be examined\n     */\n    function canBeWhitelisted(bytes32 _listingHash) view public returns (bool) {\n        uint challengeID = listings[_listingHash].challengeID;\n        // Ensures that the application was made,\n        // the application period has ended,\n        // the listingHash can be whitelisted,\n        // and either: the challengeID == 0, or the challenge has been resolved.\n        if (\n            appWasMade(_listingHash) &&\n            listings[_listingHash].applicationExpiry < now &&\n            !isWhitelisted(_listingHash) &&\n            (challengeID == 0 || challenges[challengeID].resolved == true)\n        ) { return true; }\n\n        return false;\n    }\n\n    /**\n     * Checks if the application period is still active for the specified listing\n     * @param _listingHash The listingHash whose status is to be examined\n     * @return Boolean indication of isApplicationPeriodActive for target listing\n     */\n    function appPeriodActive(bytes32 _listingHash) constant public returns (bool active) {\n        require(appWasMade(_listingHash));\n\n        return listings[_listingHash].applicationExpiry < now;\n    }\n\n    /**\n     * Returns true if the provided listingHash is whitelisted\n     * @param _listingHash The listingHash whose status is to be examined\n     */\n    function isWhitelisted(bytes32 _listingHash) view public returns (bool whitelisted) {\n        return listings[_listingHash].whitelisted;\n    }\n\n    /**\n     * Returns true if apply was called for this listingHash\n     * @param _listingHash The listingHash whose status is to be examined\n     */\n    function appWasMade(bytes32 _listingHash) view public returns (bool exists) {\n        return listings[_listingHash].applicationExpiry > 0;\n    }\n\n    /**\n     * Returns true if the application/listingHash has an unresolved challenge\n     * @param _listingHash The listingHash whose status is to be examined\n     */\n    function challengeExists(bytes32 _listingHash) view public returns (bool) {\n        uint challengeID = listings[_listingHash].challengeID;\n\n        return (listings[_listingHash].challengeID > 0 && !challenges[challengeID].resolved);\n    }\n\n    /**\n     * Determines whether voting has concluded in a challenge for a given listingHash. Throws if no challenge exists.\n     * @param _listingHash A listingHash with an unresolved challenge\n     */\n    function challengeCanBeResolved(bytes32 _listingHash) view public returns (bool) {\n        uint challengeID = listings[_listingHash].challengeID;\n\n        require(challengeExists(_listingHash));\n\n        return voting.pollEnded(challengeID);\n    }\n\n    /**\n     * Determines the number of tokens awarded to the winning party in a challenge.\n     * @param _challengeID The challengeID to determine a reward for\n     */\n    function determineReward(uint _challengeID) public view returns (uint) {\n        require(!challenges[_challengeID].resolved && voting.pollEnded(_challengeID));\n\n        // Edge case, nobody voted, give all tokens to the challenger.\n        if (voting.getTotalNumberOfTokensForWinningOption(_challengeID) == 0) {\n            return 2 * challenges[_challengeID].stake;\n        }\n\n        return (2 * challenges[_challengeID].stake).sub(challenges[_challengeID].rewardPool) ;\n    }\n\n    /**\n     * Getter for Challenge tokenClaims mappings\n     * @param _challengeID The challengeID to query\n     * @param _voter The voter whose claim status to query for the provided challengeID\n     * @return The result of tokenClaims mapping\n     */\n    function tokenClaims(uint _challengeID, address _voter) public view returns (bool) {\n        return challenges[_challengeID].tokenClaims[_voter];\n    }\n\n\n    // ------------------\n    // PRIVATE FUNCTIONS:\n    // ------------------\n\n    /**\n     * Determines the winner in a challenge. Rewards the winner tokens and either whitelists\n     * or de-whitelists (reset) the listingHash.\n     * @param _listingHash A listingHash with a challenge that is to be resolved\n     */\n    function resolveChallenge(bytes32 _listingHash) private {\n        uint challengeID = listings[_listingHash].challengeID;\n\n        // Calculates the winner's reward,\n        // which is: (winner's full stake) + (dispensationPct * loser's stake)\n        uint reward = determineReward(challengeID);\n\n        // Sets flag on challenge being processed\n        challenges[challengeID].resolved = true;\n\n        // Stores the total tokens used for voting by the winning side for reward purposes\n        challenges[challengeID].totalTokens = voting.getTotalNumberOfTokensForWinningOption(challengeID);\n\n        // Case: challenge failed\n        if (voting.isPassed(challengeID)) {\n            whitelistApplication(_listingHash);\n\n            uint stake = challenges[challengeID].stake;\n\n            // Unlock stake and return it to the applier\n            listings[_listingHash].unstakedDeposit = listings[_listingHash].unstakedDeposit.add(stake);\n\n            // Transfer the remaining reward to the challenger\n            require(token.transfer(listings[_listingHash].owner, reward.sub(stake)));\n\n            emit _ChallengeFailed(_listingHash, challengeID, challenges[challengeID].rewardPool, challenges[challengeID].totalTokens);\n        }\n        // Case: challenge succeeded or nobody voted\n        else {\n            resetListing(_listingHash);\n\n            // Transfer the reward to the challenger\n            require(token.transfer(challenges[challengeID].challenger, reward));\n\n            emit _ChallengeSucceeded(_listingHash, challengeID, challenges[challengeID].rewardPool, challenges[challengeID].totalTokens);\n        }\n    }\n\n    /**\n     * Add an already Applied listingHash to the whitelist\n     * @dev Called by updateStatus() if the applicationExpiry date passed without a challenge being made.\n     * @dev Called by resolveChallenge() if an application/listing beat a challenge.\n     * @param _listingHash The listingHash of an application/listingHash to be whitelisted\n     */\n    function whitelistApplication(bytes32 _listingHash) private {\n        if (!listings[_listingHash].whitelisted) {emit _ApplicationWhitelisted(_listingHash);}\n        listings[_listingHash].whitelisted = true;\n    }\n\n    /**\n     * Deletes a listingHash from the whitelist and transfers tokens back to owner\n     * @param _listingHash The listing hash to delete\n     */\n    function resetListing(bytes32 _listingHash) private {\n        Listing storage listing = listings[_listingHash];\n\n        // Emit events before deleting listing to check whether is whitelisted\n        if (listing.whitelisted) {\n            emit _ListingRemoved(_listingHash);\n        } else {\n            emit _ApplicationRemoved(_listingHash);\n        }\n\n        // Deleting listing to prevent reentry\n        address owner = listing.owner;\n        uint unstakedDeposit = listing.unstakedDeposit;\n        delete listings[_listingHash];\n\n        // Transfers any remaining balance back to the owner\n        if (unstakedDeposit > 0) {\n            require(token.transfer(owner, unstakedDeposit));\n        }\n    }\n\n    /**\n     * Sets the param keyed by the provided name to the provided value\n     * @param _name The name of the param to be set\n     * @param _value The value to set the param to be set\n     */\n    function set(string _name, uint _value) private {\n        params[keccak256(abi.encodePacked(_name))] = _value;\n    }\n}\n",
  "sourcePath": "/Users/agustinferreira/Projects/xivis/decentraland/decentraland-tcr/contracts/Registry.sol",
  "compiler": {
    "name": "solc",
    "version": "0.4.24+commit.e67f0147.Emscripten.clang"
  },
  "schemaVersion": "2.0.0",
  "updatedAt": "2019-01-23T18:08:54.212Z"
}